:100000000C9403320C9434320C9434320C94343209
:100010000C9434320C94B5D50C9434320C943432A4
:100020000C9446D90C9434320C9434320C943432FF
:100030000C9434320C9434320D946B490C9463CA92
:100040000C9434320C9414F90C9434320C943432F1
:100050000C9434320C9434320C9434320D94EC07FA
:100060000C9434320C946DC20C9434320C943432AF
:100070000C9434320C9434320C9434320C94343268
:100080000C9434320C9434320C9434320C94343258
:100090000C9429C20C9434320C9434320C943432C3
:1000A0000C9434320C9434320C9434320C94343238
:1000B0000C9434320C9434320C9434320C94343228
:1000C0000C9434320C9434320C9434320C943CC67C
:1000D0000C9434320C9434320C9434320C94343208
:1000E0000C943432124E184E1E4E294E344EB94ED8
:1000F0003F4E484E514E5C4E674E724E824E8D4E74
:10010000B94E984EA34EAE4E67B770B715B7E4B66A
:10011000B4B645BA93B7B3B839B993B9AFB9E6B97C
:10012000A3EBA7EBADEBB6EBCEEBEBEB28EC5DEC8A
:10013000B3F5C9F5DBF5E8F5F2F520F641F647F63B
:1001400055F658F65AF664F675F686F67E01A6015F
:10015000DC0148016801D801180222025601AA01F7
:100160002002FA01EC015001D801FE01A2018E012A
:100170005E010E0272014401B0018401B4013C0130
:10018000000294013601C20142014201860142018E
:10019000860192016A01084AD73B3BCE016E84BCBE
:1001A000BFFDC12F3D6C74319ABD56833DDA3D00D1
:1001B000C77F11BED9E4BB4C3E916BAAAABE00001A
:1001C00000803F05A84CCDB2D44EB93836A9020CF8
:1001D00050B9918688083CA6AAAA2ABE00000080D1
:1001E0003F07634236B79BD8A71A39685618AEBA8C
:1001F000AB558C1D3CB7CC5763BD6DEDFD753EF620
:10020000177231BF000000803F08000000BE92243A
:1002100049123EABAAAA2ABECDCCCC4C3E0000006F
:1002200080BEABAAAAAA3E00000000BF000000806A
:100230003F0000000000084178D3BB4387D1133D45
:10024000190E3CC3BD4282AD2B3E68EC8276BED90E
:100250008FE1A93E4C80EFFFBE01C4FF7F3F00004D
:10026000000000000D9498640D94BF6C0D94E00F95
:100270000D9419060D94EA650D94AD0F0D94C5719A
:100280000D94D46C0D943D6C0D94770F0D94C66C49
:100290000D94D4050D94A34F0D946E720D94280601
:1002A0000D9405060D9473650D94E2720D94EF059F
:1002B0000D94E61F0D94DB6C0D94FF720D94510F9D
:1002C0000D94A1060D941F060D94030C0D942D544E
:1002D0000D94DA050D94466C0D94A8430D9484702A
:1002E0000D9407400D94650F0D94A7060D943441AD
:1002F0000D94B9060D94C5720D9421690D94DE0517
:100300000D94DC1F0D9413720D94990F0D94406C95
:100310000D94D8060D94E8060D94B66C0D94130652
:100320000D941B840D94436C0D94C90F0D94CD6CEA
:100330000D94761E0D9459420D94BF060D94C90676
:100340000D94051E0D940F060D94B43F0D94E10518
:100350000D943B3E0D94F3050D94AD060D94754F31
:100360000D94930F0D94176D0D949F0F0D945A1EBD
:100370000D94E26C0D940A710D9498710D94D3064E
:100380000D94D21F0D94EE0F0D949E6C0D9451722E
:100390000D9494530D94C4060D9429250D94337235
:1003A0000D942E3E0D948B410D94AA6E0D94AC6865
:1003B0000D9418060D94FD1E0D94D0050D945571E5
:1003C0000D94456D0D94856E0D942D530D94866C92
:1003D0000D9425AD0D948B720D9401060D940B6751
:1003E0000D94F2410D94A8720D948B6A0D94E96CF2
:1003F0000D9418670D94FD050D94A7AC0D940B0694
:100400000D94BB0F0D94B3060D947E770D94494166
:100410000D94D36D0D9424720D9423060D945F0FEB
:100420000D9449680D94EB520D9417690D94CE0606
:100430000D94E5050D94746D0D94463E0D94D442D3
:100440000D94F7050D94E9050D945B686E616E00DF
:10045000696E66004E414E494E495459494E46CD4B
:10046000CCCC3D0AD7233C17B7D13877CC2B32956B
:1004700095E6241FB14F0A000020410000C8420049
:10048000401C4620BCBE4CCA1B0E5AAEC59D740013
:10049000407A10F35A00A0724E18090010A5D4E853
:1004A0000000E87648170000E40B54020000CA9AE6
:1004B0003B000000E1F50500008096980000004038
:1004C000420F000000A0860100000010270000007D
:1004D00000E803000000006400000000000A0000C3
:1004E0000000000100000000002C76D888DC674F77
:1004F0000823DFC1DFAE59E1B1B796E5E3E453C6A7
:100500003AE651997696E8E6C28426EB898C9B629E
:10051000ED407C6FFCEFBC9C9F40F2BAA56FA5F448
:1005200090055A2AF75C936B6CF9676DC11BFCE070
:10053000E40D47FEF520E6B500D0ED902E030094C3
:100540003577050080841E080000204E0A00000058
:10055000C80C333333330F986E12831141EF8D2162
:1005600014893BE65516CFFEE6DB18D1844B381BC9
:10057000F77C1D901DA4BBE424203284725E22818E
:1005800000C9F124ECA1E53D276364696E6F7073C7
:100590007578585B002564206279746573207772E2
:1005A000697474656E20746F20454550524F4D201C
:1005B000617420616464726573732030782530340F
:1005C00078004433202D20526561642F577269747E
:1005D0006520454550524F4D0A0020436F756E749B
:1005E00020583A20005344207072696E74696E6717
:1005F000206279746520004E6F7420696E206661F8
:10060000726D206D6F64652E00416374697665209C
:1006100045787472756465723A2000496E76616C33
:100620006964206578747275646572005A204F663B
:100630006673657400556E6B6E6F776E20636F6DB9
:100640006D616E643A2022004D32303020496E7662
:10065000616C696420657874727564657220007AD3
:100660005F6D61783A20007A5F6D696E3A2000799B
:100670005F6D61783A2000795F6D696E3A2000788D
:100680005F6D61783A20006F70656E005452494783
:10069000474552454400785F6D696E3A20005265C7
:1006A000706F7274696E6720656E6473746F70200A
:1006B000737461747573000053494C454E54004E79
:1006C0004F524D414C002553204D4F44453A205048
:1006D000657263656E7420646F6E653A2025643BB5
:1006E000207072696E742074696D652072656D6129
:1006F000696E696E6720696E206D696E733A202598
:10070000640A00456E642066696C65206C697374C8
:1007100000426567696E2066696C65206C69737458
:10072000000A50494E44412074656D7065726174D1
:100730007572653A20252E3166205A2073686966E5
:100740007420286D6D293A20252E3366000A5374D3
:1007500065703A2025642F360A000A537465703A92
:100760002025642F362028736B6970706564290A10
:1007700050494E44412074656D70657261747572A4
:10078000653A202564205A20736869667420286DB4
:100790006D293A300A000A5A45524F3A20252E3325
:1007A000660A0073746172742074656D706572619D
:1007B000747572653A20252E31660A002564202062
:1007C000252E326600255320583A20252E356620E6
:1007D000593A20252E3566205A3A20252E35660AAC
:1007E00000536C6565702E2E2E004E6F7420696E5E
:1007F000206661726D206D6F64652E002564004572
:10080000303A25642052504D0A50524E303A2564F9
:100810002052504D0A002564004175746F00204538
:100820002F443D00416476616E6365204B3D004D71
:100830003232302053256900255346696C616D655D
:100840006E742073657474696E67733A20446973BB
:1008500061626C65640A00255346696C616D656E62
:10086000742073657474696E67733A0A2553202087
:10087000204D3230302044252E32660A0025535256
:100880006574726163743A20533D4C656E67746899
:1008900020286D6D2920463A537065656420286DC7
:1008A0006D2F6D29205A3A205A4C69667420286DA4
:1008B0006D290A25532020204D3230372053252E14
:1008C00032662046252E3266205A252E32660A25AB
:1008D000535265636F7665723A20533D4578747262
:1008E00061206C656E67746820286D6D2920463A1A
:1008F000537065656420286D6D2F6D290A2553207E
:1009000020204D3230382053252E32662046252EA9
:1009100032660A25534175746F2D52657472616396
:10092000743A20533D3020746F2064697361626CA7
:10093000652C203120746F20696E74657270726549
:100940007420657874727564652D6F6E6C79206D96
:100950006F7665732061732072657472616374735E
:10096000206F72207265636F7665726965730A2500
:10097000532020204D323039205325640A0025535E
:1009800050494420686561746265642073657474BD
:10099000696E67733A0A25532020204D3330342086
:1009A00050252E32662049252E32662044252E32CF
:1009B000660A0025535049442073657474696E6754
:1009C000733A0A25532020204D3330312050252EF4
:1009D00032662049252E32662044252E32660A00D2
:1009E000255353746570732070657220756E697439
:1009F0003A0A255320204D39322058252E326620C0
:100A000059252E3266205A252E32662045252E3253
:100A1000660A25534D6178696D756D20666565645C
:100A20007261746573202D206E6F726D616C202869
:100A30006D6D2F73293A0A255320204D3230332013
:100A400058252E32662059252E3266205A252E3200
:100A5000662045252E32660A25534D6178696D75ED
:100A60006D20666565647261746573202D207374F2
:100A700065616C746820286D6D2F73293A0A2553BF
:100A800020204D3230332058252E32662059252E15
:100A90003266205A252E32662045252E32660A25DA
:100AA000534D6178696D756D20616363656C657226
:100AB0006174696F6E202D206E6F726D616C2028DD
:100AC0006D6D2F7332293A0A255320204D32303173
:100AD0002058256C752059256C75205A256C752079
:100AE00045256C750A25534D6178696D756D2061DA
:100AF0006363656C65726174696F6E202D20737419
:100B000065616C746820286D6D2F7332293A0A254F
:100B10005320204D3230312058256C752059256CDA
:100B200075205A256C752045256C750A255341633F
:100B300063656C65726174696F6E3A20533D6163E1
:100B400063656C65726174696F6E2C20543D7265CB
:100B5000747261637420616363656C65726174694A
:100B60006F6E0A255320204D3230342053252E320B
:100B7000662054252E32660A2553416476616E63E1
:100B80006564207661726961626C65733A20533DD9
:100B90004D696E20666565647261746520286D6DAF
:100BA0002F73292C20543D4D696E20747261766537
:100BB0006C20666565647261746520286D6D2F73A5
:100BC000292C20423D6D696E696D756D20736567D6
:100BD0006D656E742074696D6520286D73292C20F5
:100BE000583D6D6178696D756D205859206A657240
:100BF0006B20286D6D2F73292C20205A3D6D617854
:100C0000696D756D205A206A65726B20286D6D2F95
:100C100073292C2020453D6D6178696D756D2045E7
:100C2000206A65726B20286D6D2F73290A25532069
:100C3000204D3230352053252E32662054252E3259
:100C4000662042252E32662058252E3266205925F0
:100C50002E3266205A252E32662045252E32660A0F
:100C60002553486F6D65206F666673657420286D27
:100C70006D293A0A255320204D3230362058252E32
:100C800032662059252E3266205A252E32660A00F9
:100C90004625642025640A004D4D55203C3D202703
:100CA000462564202564270A005049442041757474
:100CB0006F74756E652066696E697368656421205E
:100CC00050757420746865206C617374204B702CAF
:100CD000204B6920616E64204B6420636F6E7374D7
:100CE000616E74732066726F6D2061626F7665202D
:100CF000696E746F20436F6E66696775726174699F
:100D00006F6E2E6800504944204175746F74756E83
:100D100065206661696C6564212074696D656F7515
:100D2000740020403A00543A00423A0050494420AE
:100D30004175746F74756E65206661696C656421B8
:100D40002054656D706572617475726520746F6F83
:100D5000206869676800204B643A2000204B693A9C
:100D60002000204B703A200020436C61737369634C
:100D70002050494420002054753A2000204B753AF9
:100D80002000206D61783A2000206D696E3A2000C5
:100D900020643A200020626961733A200020453ABD
:100DA00000205A3A0020593A0020453A00205A3A89
:100DB0000020593A00583A00005A30005A31005980
:100DC0003000593100583000583100456E642073AE
:100DD000746F70732064696167002E0044656C65F0
:100DE00074696F6E206661696C65642C2046696C5D
:100DF000653A200046696C652064656C65746564BD
:100E00003A004E6F74205344207072696E74696E9C
:100E100067005072696E7420736176656400534494
:100E2000207072696E7420706175736564000A00C9
:100E30002F000A006673656E736F725F726573745C
:100E40006F72655F7072696E745F616E645F636F0D
:100E50006E74696E75650A002F2F20616374696F67
:100E60006E3A63616E63656C0043524153485F4361
:100E7000414E43454C0043524153485F5245434F16
:100E80005645520043524153485F5245434F5645E1
:100E90005200222832290054004475706C69636145
:100EA000746520542D636F64652069676E6F726589
:100EB000642E0A004475706C696361746520542D5A
:100EC000636F64652069676E6F7265642E0A0049FE
:100ED0006E76616C6964205420636F64652E0055E2
:100EE0006E6B6E6F776E204D20636F64653A2025C0
:100EF00073200A006E6F2076616C696420636F6DE9
:100F00006D616E64002C20002C20002C20006E2FC0
:100F100061002C20002C20002C20006E2F61002F5F
:100F200000503A005761697420666F722050494E34
:100F30004441207461726765742074656D706572D8
:100F400061747572653A004C414E472053454C2000
:100F5000464F52434544002228312900303030307A
:100F6000303030302D303030302D303030302D308A
:100F70003030302D30303030303030303030303074
:100F80000020555549443A003100204558545255E7
:100F90004445525F434F554E543A00507275736149
:100FA00020693320424D47204D4B335300204D41A3
:100FB0004348494E455F545950453A00312E300060
:100FC000206261736564206F6E204D61726C696E82
:100FD000204649524D574152455F55524C3A68742C
:100FE0007470733A2F2F6769746875622E636F6D22
:100FF0002F707275736133642F50727573612D4653
:1010000069726D776172652050524F544F434F4C57
:101010005F56455253494F4E3A004649524D57414B
:1010200052455F4E414D453A50727573612D466988
:10103000726D7761726520004D313133205300208D
:10104000423A0020453A00543A0020413A002050EC
:101050003A002042403A0020403A00202F003A0057
:10106000205400202F0020423A00202F006F6B20D8
:10107000543A002569206D696E2C2025692073651E
:101080006300496E76616C6964204D20636F64650E
:101090003A202573200A00556E6B6E6F776E2047DD
:1010A00020636F64653A202573200A004D657368DC
:1010B00020626564206C6576656C696E67206E6F72
:1010C00074206163746976652E000A002020000A8E
:1010D0004D6561737572656420706F696E74733AE3
:1010E000000A5A20736561726368206865696768E1
:1010F000743A20002C004E756D20582C593A20006F
:10110000206D6963726F6E730045786365737369F0
:10111000766520626564206C6576656C696E672013
:10112000636F7272656374696F6E3A200042656422
:10113000206C6576656C696E67206661696C6564B4
:101140002E2053656E736F722074726967676572C3
:10115000656420746F6F20686967682E0A004265B5
:1011600064206C6576656C696E67206661696C6584
:10117000642E2053656E736F7220646973636F6EA3
:101180006E6563746564206F72206361626C6520B4
:1011900062726F6B656E2E0A00473238205730003E
:1011A00050494E44412070726F62652063616C69E2
:1011B00062726174696F6E20737461727400473279
:1011C00038205730004D3234005345545F43484F68
:1011D000505F005345545F535445505F005345548E
:1011E0005F574156455F00544D435F0043524153A2
:1011F000485F005072657373206B6E6F6220746F6E
:101200002070726568656174206E6F7A7A6C6520F3
:10121000616E6420636F6E74696E75652E00506C2C
:101220006561736520707265737320746865206BE7
:101230006E6F6220746F20756E6C6F6164206669DA
:101240006C616D656E740052656D6F7665206F6CB4
:10125000642066696C616D656E7420616E642070D7
:101260007265737320746865206B6E6F6220746F93
:10127000207374617274206C6F6164696E67206E94
:1012800065772066696C616D656E742E00616E64B1
:1012900020707265737320746865206B6E6F6200D6
:1012A000496E736572742066696C616D656E740059
:1012B000436F6C6F72206E6F7420636F7272656320
:1012C000740046696C616D656E74206E6F74206C7D
:1012D0006F61646564004368616E67656420636F75
:1012E00072726563746C793F004C6F6164696E67FC
:1012F00020636F6C6F72004368616E676520737561
:1013000063636573732100506C65617365206F7052
:10131000656E2069646C657220616E642072656D13
:101320006F76652066696C616D656E74206D616EA7
:1013300075616C6C792E005761732066696C616D04
:10134000656E7420756E6C6F616420737563636580
:10135000737366756C3F00506C65617365207570C2
:1013600067726164652E004E6577206669726D77DD
:101370006172652076657273696F6E20617661694E
:101380006C61626C653A0057616974696E672066CA
:101390006F722050494E44412070726F6265206325
:1013A0006F6F6C696E670043726173682064657467
:1013B00065637465642E20526573756D6520707267
:1013C000696E743F0043726173682064657465637D
:1013D0007465642E004578747275646572004368A4
:1013E0006F6F73652065787472756465723A004337
:1013F000686F6F73652066696C616D656E743A0025
:101400004E6F206D6F76652E005761697420666F90
:101410007220757365722E2E2E00536F6D652070CD
:10142000726F626C656D20656E636F756E74657248
:1014300065642C205A2D6C6576656C696E67206535
:101440006E666F72636564202E2E2E005374616287
:101450006C6520616D6269656E742074656D706580
:101460007261747572652032312D32364320697392
:10147000206E656564656420612072696769642017
:101480007374616E64206973207265717569726529
:10149000642E00506C656173652072756E2058591A
:1014A0005A2063616C6962726174696F6E2066694B
:1014B0007273742E0073746172740A006164635FE6
:1014C000696E69740A0000202D20496E76616C698E
:1014D00064206578747275646572206E756D6265DE
:1014E000722021001B5B324A1B5B313B31484F723B
:1014F0006967696E616C2050727573612069331B76
:101500005B323B334850727573612052657365617D
:1015100072636800466163746F7279205245534567
:10152000540044495341424C45440A00454E41420F
:101530004C4544004653656E736F722025530A0074
:10154000417072202038203230313900436F6D7085
:10155000696C65643A2000286E6F6E652C206465A6
:101560006661756C7420636F6E66696729004170EF
:101570007220203820323031392031333A34363A33
:1015800030320020332E372E302D323230310A00E7
:101590002055706C6F616420696E2070726F677285
:1015A00065737300205A3A0020593A0020583A00D7
:1015B00043524153485F4445544543544544585968
:1015C0000043524153485F444554454354454459B0
:1015D0000043524153485F444554454354454458A1
:1015E000004D323900507275736120693320424DCD
:1015F00047204D4B3353204F4B2E00426C61636BA1
:101600006F7574206F636375727265642E20526506
:10161000636F766572207072696E743F0053656CFB
:1016200066746573742077696C6C206265207275CE
:101630006E20746F2063616C6962726174652061F1
:10164000636375726174652073656E736F726C6528
:101650007373207265686F6D696E672E00546865DC
:101660007265206973207374696C6C2061206E65EB
:10167000656420746F206D616B65205A2063616C16
:101680006962726174696F6E2E20506C656173655A
:1016900020666F6C6C6F7720746865206D616E7565
:1016A000616C2C2063686170746572204669727386
:1016B000742073746570732C2073656374696F6E26
:1016C0002043616C6962726174696F6E20666C6F31
:1016D000772E005072696E74657220686173206E97
:1016E0006F74206265656E2063616C6962726174FB
:1016F0006564207965742E20506C65617365206681
:101700006F6C6C6F7720746865206D616E75616CAD
:101710002C2063686170746572204669727374204E
:1017200073746570732C2073656374696F6E2043E6
:10173000616C6962726174696F6E20666C6F772E7E
:10174000004F6C642073657474696E677320666FF4
:10175000756E642E2044656661756C742050494432
:101760002C20457374657073206574632E2077692F
:101770006C6C206265207365742E005761726E690F
:101780006E673A20626F7468207072696E74657259
:10179000207479706520616E64206D6F7468657265
:1017A000626F6172642074797065206368616E672E
:1017B00065642E005761726E696E673A20707269B7
:1017C0006E7465722074797065206368616E6765F8
:1017D000642E005761726E696E673A206D6F74688F
:1017E0006572626F617264207479706520636861EC
:1017F0006E6765642E0045787465726E616C205367
:10180000504920666C617368205732355832304336
:101810004C206E6F7420726573706F6E64696E67B2
:101820002E00437261736844657465637420444993
:101830005341424C4544004372617368446574658A
:10184000637420454E41424C454421002020506C99
:10185000616E6E6572427566666572427974657313
:101860003A20002046726565204D656D6F72793AA9
:101870002000207C20417574686F723A2000204C53
:1018800061737420557064617465643A200020535C
:101890006F667477617265205265736574002057B6
:1018A00061746368646F67205265736574002042D9
:1018B000726F776E206F75742052657365740020A7
:1018C00045787465726E616C205265736574005062
:1018D0006F7765725570006572726F7220777269EA
:1018E00074696E6720746F2066696C6500656E644C
:1018F00073746F7073206869743A2000446F6E656A
:1019000020736176696E672066696C652E006F6B67
:10191000007C3C3E5E2B3D3F2F5B5D3B2C2A225CD6
:101920000022206661696C65643A204275666665CE
:10193000722066756C6C21002200256920686F7525
:101940007273202569206D696E7574657300544942
:101950004D454F55543A004D3131300046756C6C51
:101960002052582042756666657200656E71756515
:10197000696E67202200446F6E65207072696E7414
:10198000696E672066696C65005072696E74657275
:101990002073746F707065642064756520746F20A7
:1019A0006572726F72732E204669782074686520A4
:1019B0006572726F7220616E6420757365204D3997
:1019C000393920746F20726573746172742E202807
:1019D00054656D70657261747572652069732072EB
:1019E000657365742E205365742069742061667474
:1019F00065722072657374617274696E6729004E36
:101A00006F204C696E65204E756D62657220776936
:101A1000746820636865636B73756D2C204C61730B
:101A200074204C696E653A20004E6F2043686563F0
:101A30006B73756D2077697468206C696E65206EB4
:101A4000756D6265722C204C617374204C696E65F3
:101A50003A2000636865636B73756D206D69736D03
:101A6000617463682C204C617374204C696E653A14
:101A700020004C696E65204E756D62657220697339
:101A8000206E6F74204C617374204C696E65204E1B
:101A9000756D6265722B312C204C617374204C691A
:101AA0006E653A200053544F505045442E20005844
:101AB000595A2063616C6962726174696F6E20614A
:101AC0006C6C2072696768742E20536B6577207781
:101AD000696C6C20626520636F7272656374656403
:101AE000206175746F6D61746963616C6C792E002F
:101AF00058595A2063616C6962726174696F6E2013
:101B0000616C6C2072696768742E20582F592061AF
:101B10007865732061726520736C696768746C798D
:101B200020736B657765642E20476F6F64206A6F42
:101B300062210058595A2063616C6962726174694C
:101B40006F6E206F6B2E20582F592061786573209F
:101B50006172652070657270656E646963756C6131
:101B6000722E20436F6E67726174756C6174696F59
:101B70006E73210058595A2063616C6962726174F6
:101B8000696F6E206661696C65642E2052696768B2
:101B9000742066726F6E742063616C696272617426
:101BA000696F6E20706F696E74206E6F742072653D
:101BB00061636861626C652E0058595A2063616CDC
:101BC0006962726174696F6E206661696C65642E0A
:101BD0002046726F6E742063616C69627261746911
:101BE0006F6E20706F696E7473206E6F74207265F3
:101BF00061636861626C652E0058595A2063616C9C
:101C00006962726174696F6E206661696C65642EC9
:101C100020506C6561736520636F6E73756C742002
:101C2000746865206D616E75616C2E0058595A207C
:101C300063616C6962726174696F6E20636F6D704D
:101C4000726F6D697365642E2052696768742066CF
:101C5000726F6E742063616C6962726174696F6E19
:101C600020706F696E74206E6F7420726561636896
:101C700061626C652E0058595A2063616C6962720A
:101C80006174696F6E20636F6D70726F6D697365DB
:101C9000642E2046726F6E742063616C696272619B
:101CA00074696F6E20706F696E7473206E6F74202C
:101CB000726561636861626C652E0058595A2063D1
:101CC000616C6962726174696F6E206661696C65CE
:101CD000642E204265642063616C6962726174697C
:101CE0006F6E20706F696E7420776173206E6F74F1
:101CF00020666F756E642E00506C65617365207090
:101D00006C61636520737465656C207368656574C8
:101D1000206F6E20686561746265642E004469738B
:101D200074616E6365206265747765656E207469A1
:101D300070206F6620746865206E6F7A7A6C6520FB
:101D4000616E6420746865206265642073757266D4
:101D500061636520686173206E6F74206265656ED3
:101D600020736574207965742E20506C65617365ED
:101D700020666F6C6C6F7720746865206D616E757E
:101D8000616C2C206368617074657220466972739F
:101D9000742073746570732C2073656374696F6E3F
:101DA000204669727374206C617965722063616C7E
:101DB0006962726174696F6E2E00506C6163652098
:101DC00061207368656574206F662070617065724C
:101DD00020756E64657220746865206E6F7A7A6C07
:101DE0006520647572696E67207468652063616C34
:101DF0006962726174696F6E206F662066697273C2
:101E000074203420706F696E74732E2049662074BC
:101E10006865206E6F7A7A6C6520636174636865AB
:101E200073207468652070617065722C20706F7704
:101E30006572206F666620746865207072696E74C2
:101E4000657220696D6D6564696174656C792E00D9
:101E5000506C656173652072656D6F766520737473
:101E600065656C2073686565742066726F6D2068A7
:101E70006561746265642E00497320737465656CD6
:101E8000207368656574206F6E2068656174626593
:101E9000643F00206F662034005365617263686997
:101EA0006E67206265642063616C69627261746947
:101EB0006F6E20706F696E7400206F662039004D60
:101EC0006561737572696E67207265666572656EAD
:101ED000636520686569676874206F662063616C5C
:101EE0006962726174696F6E20706F696E74005000
:101EF0006C6561736520636C65616E207468652034
:101F00006E6F7A7A6C6520666F722063616C6962AD
:101F1000726174696F6E2E20436C69636B20776801
:101F2000656E20646F6E652E004175746F20686F5A
:101F30006D650078797A63616C5F6D656173737547
:101F400072655F656E7465720A0078797A63616C98
:101F50005F73706972616C382063783D256420631B
:101F6000793D2564207A303D256420647A3D2564DE
:101F7000207261646975733D25642061643D256448
:101F80000A0078797A63616C5F7365617263685A7D
:101F9000206E6F207369676E616C0A20783D256C36
:101FA0006420793D256C64207A3D256C640A00200C
:101FB0004F4E2D5349474E414C20617420783D25AA
:101FC0006420793D2564207A3D25642061643D25A7
:101FD000640A0078797A63616C5F73656172636823
:101FE0005A20783D256C6420793D256C64207A3D2B
:101FF000256C640A000A00253032780078797A630B
:10200000616C5F7363616E5F706978656C735F3379
:10201000327833322063783D25642063793D25642E
:10202000206D696E5F7A3D2564206D61785F7A3D31
:1020300025640A00202532642025640A000A002550
:1020400030327800206D696E3D2564206D61783DE9
:102050002564206469663D25640A006D61785F63CC
:102060003D253264206D61785F6C3D25640A006D0A
:1020700061785F633D2564206D61785F723D256402
:10208000206D61785F6D617463683D25640A00208E
:10209000783D256420793D2564207A3D25640A0039
:1020A000207061747465726E20666F756E64206155
:1020B000742025642025640A000000F000F801FC6B
:1020C00003FE07FE07FE07FE07FC03F801F0000011
:1020D0000073697A656F6628746F74616C293D2599
:1020E000640A0073697A656F6628626C6F636B5F60
:1020F000627566666572293D25640A0078797A639F
:10210000616C5F6D656173737572655F6C65617637
:10211000650A00706F696E743D256420783D256402
:1021200020793D2564207A3D25640A005802580232
:10213000584D584DB004F055F055B00478797A6395
:10214000616C5F66696E645F6265645F696E647529
:102150006374696F6E5F73656E736F725F706F69C2
:102160006E745F787920783D256C6420793D256C0C
:1021700064207A3D256C640A00203C2000574152BF
:102180004E494E473A2046726F6E7420706F696EEA
:1021900074206E6F7420726561636861626C652E75
:1021A000205920636F6F7264696E6174653A000034
:1021B000000040410000C04000005C430000C040FF
:1021C00000005C43000046430000404100004643DD
:1021D000497465726174696F6E3A200043616C697D
:1021E00062726174696F6E206661696C656421203A
:1021F000436865636B20746865206178657320614E
:102200006E642072756E20616761696E2E00000039
:10221000803F555585410000803F0000C8410000C7
:102220000040555505420000C03F000048420000F4
:10223000204055558542000070C1ABAAA64200005F
:1022400060C10000A0410000C0C0000020410000AB
:102250002041ABAA3A41000020C15555D5400000AD
:1022600048C2555505424D373031204530004D3775
:102270003031204531004D373031204532004D3767
:102280003031204533004D373031204534004D3753
:102290003031204534004D373031204533004D3743
:1022A0003031204532004D373031204531004D3737
:1022B00030312045300046696C616D656E74206E6A
:1022C00072206F7574206F662072616E67652100E1
:1022D0004164646974696F6E616C206C6F61642025
:1022E000617474656D7074206E722E2025640A000E
:1022F000773235783230636C5F63666D0A0077320F
:1023000035783230636C5F656E7465720A00506CAC
:10231000656173652072656D6F76652066696C61B5
:102320006D656E7420616E64207468656E207072D5
:1023300065737320746865206B6E6F622E00456A4A
:10234000656374696E672066696C616D656E7400A3
:102350004D4D55206C6F6164206661696C65642029
:10236000202020200020746F6F206C6F6E67206526
:102370007874727573696F6E2070726576656E74AD
:1023800065640020636F6C6420657874727573698E
:102390006F6E2070726576656E7465640045787244
:1023A000656D65207370616E206F662074686520AE
:1023B0005A2076616C75657321006F6B0A00737427
:1023C0006172740A004D4D5532206669726D7761F5
:1023D00072652076657273696F6E20696E76616CC6
:1023E00069642E2052657175697265642076657224
:1023F00073696F6E3A206275696C64206E756D62E8
:102400006572202564206F72206869676865722E86
:10241000006673656E736F725F73746F705F616E69
:10242000645F736176655F7072696E740A004D4D0A
:1024300055203D3E20276F6B270A004D4D55203D0E
:102440003E20276F6B270A002564004D4D55203D27
:102450003E20276F6B272C20726573756D65207089
:1024600072696E740A004D4D552072657472792040
:10247000617474656D7074206E722E2025640A007C
:102480004D4D55203D3E20276F6B270A00410A0025
:102490004D4D55203C3D202741270A004D36303018
:1024A000004D363030204155544F00505255534165
:1024B000206673656E736F725F7265636F766572A7
:1024C000002568687500410A004D4D55203C3D20AF
:1024D0002741270A0050300A004D25640A004D4D5F
:1024E00055203C3D20274D2564270A0057300A001F
:1024F0004D4D55203C3D20275730270A0053330AC5
:10250000004D4D55203C3D20275333270A005230C3
:102510000A004D4D55203C3D20275230270A004BE4
:1025200025640A004D4D55203C3D20274B2564274E
:102530000A004525640A004D4D55203C3D202745A5
:102540002564270A0055300A004D4D55203C3D209A
:10255000275530270A0043300A004D4D55203C3D99
:1025600020274330270A004C25640A004D4D552092
:102570003C3D20274C2564270A005425640A004D61
:102580004D55203C3D2027542564270A004D4D55CC
:10259000202D20454E41424C454400256868750079
:1025A00050300A004D310A004D4D55203C3D20274A
:1025B0004D31270050300A004D4D5520766572731D
:1025C000696F6E2076616C6964004D4D55203D3E0B
:1025D000202725646F6B270A0025750053320A00F7
:1025E0004D4D55203C3D2027533227004D4D552061
:1025F0003D3E202725646F6B270A002575004D4D51
:1026000055206E6F7420726573706F6E64696E67AB
:10261000202D2044495341424C45440053310A0087
:102620004D4D55203C3D2027533127004D4D552021
:102630003D3E2027737461727427006572726F7259
:102640003A20756E6B6E6F776E206D6F76650A003F
:102650006E6F206D6F76650A00542D636F64650A96
:1026600000756E6C6F61640A006C6F61640A006DC6
:102670006D755F6765745F726573706F6E736520EB
:102680002D20626567696E206D6F76653A20006D5A
:102690006D755F6765745F726573706F6E736528C3
:1026A000292072657475726E696E673A2025640A16
:1026B00000556E6C6F6164696E672066696E697340
:1026C00068656420320A00556E6C6F616420320ABE
:1026D00000556E6C6F6164696E672066696E697320
:1026E00068656420310A00556E6C6F616420310AA0
:1026F000004D4D5520737461727473207265737050
:102700006F6E64696E670A004D4D55206E6F7420C0
:10271000726573706F6E64696E670A00426564204B
:102720006C6576656C696E67206661696C65642EA0
:102730002053656E736F72206469646E74207472C6
:1027400069676765722E20446562726973206F6ED7
:10275000206E6F7A7A6C653F2057616974696E6785
:1027600020666F722072657365742E00506C65610F
:10277000736520757064617465206669726D776138
:10278000726520696E20796F7572204D4D55322E1D
:102790002057616974696E6720666F722072657375
:1027A00065742E004D4D55204F4B2E20526573758C
:1027B0006D696E672E2E2E004D4D55204F4B2E20ED
:1027C000526573756D696E6720706F736974696F98
:1027D0006E2E2E2E004D4D55204F4B2E20526573E0
:1027E000756D696E672074656D7065726174757260
:1027F000652E2E2E004669782074686520697373F3
:10280000756520616E64207468656E2070726573F2
:102810007320627574746F6E206F6E204D4D55205D
:10282000756E69742E00507265737320746865202C
:102830006B6E6F6220746F20726573756D65206EAC
:102840006F7A7A6C652074656D70657261747572EB
:10285000652E004D4D55206E65656473207573655A
:102860007220617474656E74696F6E2E0025632525
:1028700033642F256425630055534152543220722E
:10288000782046756C6C2121210A005365747469A7
:102890006E67732053746F7265640053746F726552
:1028A000642073657474696E6773207265747269ED
:1028B000657665640048617264636F646564204492
:1028C000656661756C742053657474696E677320F6
:1028D0004C6F6164656400563200000000C842001D
:1028E00000C8420000C84300804F44000048430035
:1028F000004843000040410000F042E8030000E8C7
:10290000030000C80000008813000000409C440041
:10291000409C440000000000000000204E00000029
:1029200000204100002041CDCCCC3E0000204000E2
:102930000000000000000000000000CDCCCC3E3DB7
:102940000A8141FF08433EB099AB438F42FC42E607
:102950005A343F4C62B04500000000004040000087
:1029600034420000000000000000000000410000B0
:1029700000E03F0000C8420000C8420000404100A3
:1029800000F042C0030000C0030000C8000000883F
:10299000130000436F6E74696E7565207769746803
:1029A00020616E6F7468657220626F7764656E3F38
:1029B0000025002020202020200020202020202072
:1029C0000045524153494E4720616C6C206461744C
:1029D0006100466163746F7279205245534554001B
:1029E000746D63323133305F686F6D655F656E742F
:1029F000657228617865735F6D61736B3D30782512
:102A0000303278290A00746D63323133305F686F79
:102A10006D655F6578697420746D63323133305F42
:102A200073675F686F6D696E675F617865735F6D0F
:102A300061736B3D3078253032780A0072657375AA
:102A40006C742076616C75653A2025640A002069F3
:102A50003D25326420636E743D2532642076616CBE
:102A60003D2532640A00636C7573746572733A0AAB
:102A70000020693D25326420737465703D25326401
:102A80000A00736F727465642073616D706C657396
:102A90003A0A003A20002020202020202020202058
:102AA00020202020202020202000203A200020204C
:102AB0002020202020202020202020202020202016
:102AC0002020002020202020202020202020202026
:102AD00000257300544D4320445249564552204F1F
:102AE00056455254454D500025632533642F2564C7
:102AF0002563005A25362E326620005A2020202DCC
:102B00002D2D200025632533642525002D2D2D0036
:102B10002533686864002533532533732525005514
:102B200053420020202000205344002025753E25DC
:102B30007500203F3E257500204625750020463F44
:102B40000020463020200025632D2D3A2D2D2020F9
:102B500000256325337568202563256300256325DB
:102B60003032753A25303275256325630050494E61
:102B700044412048656174696E670054656D702E2C
:102B80002063616C2E202020202020202020200087
:102B900043616C6962726174696F6E20646F6E6507
:102BA0000043616C6962726174696E67205A004209
:102BB000656420646F6E65004265642048656174D9
:102BC000696E670048656174696E6720646F6E6541
:102BD0002E0048656174696E67004D3630300050D4
:102BE00052555341206673656E736F725F726563F1
:102BF0006F766572006673656E736F725F75706471
:102C0000617465202D204D3630300A0020573A007F
:102C100020453A00543A005A206C69766520616478
:102C20006A757374206F7574206F662072616E67A9
:102C3000652E2053657474696E6720746F20302E82
:102C400020436C69636B20746F20636F6E74696ED0
:102C500075652E005A206C6976652061646A75730B
:102C600074206F7574206F662072616E67652E2008
:102C700053657474696E6720746F20300020423A87
:102C80000020453A00543A00494E543400486561EA
:102C900074696E672064697361626C65642062792F
:102CA000207361666574792074696D65722E000009
:102CB0004B494C4C45442E20005072696E7465722D
:102CC0002068616C7465642E206B696C6C28292007
:102CD00063616C6C656421004B494C4C3A2025645F
:102CE0000A004D31303420496E76616C696420658C
:102CF0007874727564657220004D31303520496EEC
:102D000076616C6964206578747275646572200000
:102D10004D31303920496E76616C69642065787474
:102D2000727564657220004D32313820496E7661CB
:102D30006C696420657874727564657220004D3228
:102D4000323120496E76616C6964206578747275E1
:102D5000646572200055564C4F202D20656E64200E
:102D600025640A007374707325640A00000E13153D
:102D7000110E00000004120912040000001C1F11B3
:102D8000111F00000006191803130C00040E1F0485
:102D90001C000000040A0A0A0A11110E001F151176
:102DA000151F0000000103161C0800000000110A96
:102DB00004110A040C12120C000000002563252DDA
:102DC0003138532563002563252E3135533A257359
:102DD000253364002563252E3132533A25732500AF
:102DE000205B6F66665D004578747275646572007D
:102DF0004D6F7665205A004D6F76652059004D6FF6
:102E000076652058001B5B324A4372617368206408
:102E10006574656374696F6E2063616E1B5B313B23
:102E200030486265207475726E6564206F6E206F25
:102E30006E6C7920696E1B5B323B30484E6F726D51
:102E4000616C206D6F6465001B5B324A5741524EC6
:102E5000494E473A1B5B313B3048437261736820EF
:102E6000646574656374696F6E1B5B323B304864E4
:102E7000697361626C656420696E1B5B333B30482B
:102E8000537465616C7468206D6F6465004175747E
:102E90006F6C6F6164696E672066696C616D656EE9
:102EA0007420617661696C61626C65206F6E6C790B
:102EB000207768656E2066696C616D656E7420733D
:102EC000656E736F72206973207475726E6564200D
:102ED0006F6E2E2E2E004552524F523A2046696C8C
:102EE000616D656E742073656E736F7220697320F7
:102EF0006E6F7420726573706F6E64696E672C20DC
:102F0000706C6561736520636865636B20636F6EC9
:102F10006E656374696F6E2E004D6F646520636823
:102F2000616E676520696E2070726F67726573737A
:102F3000202E2E2E0043616C696272617465005010
:102F40006C65617365206C6F616420504C41206634
:102F5000696C616D656E742066697273742E0049C8
:102F60007320504C412066696C616D656E74206CF5
:102F70006F616465643F0043616E63656C00466920
:102F80006C616D656E740053656C65637420504CA4
:102F9000412066696C616D656E743A0052756E6EA3
:102FA000696E672057697A6172642077696C6C205A
:102FB00064656C6574652063757272656E742063F8
:102FC000616C6962726174696F6E20726573756C91
:102FD000747320616E642073746172742066726F02
:102FE0006D2074686520626567696E6E696E672E14
:102FF00020436F6E74696E75653F00507265686539
:103000006174696E67206E6F7A7A6C652E20506CE1
:103010006561736520776169742E00456A65637424
:1030200000556E6C6F61640055736520756E6C6F32
:10303000616420746F2072656D6F76652066696CBF
:10304000616D656E7420312069662069742070722C
:103050006F747275646573206F757473696465202D
:103060006F66207468652072656172204D4D552031
:10307000747562652E2055736520656A65637420DA
:1030800069662069742069732068696464656E20CC
:10309000696E20747562652E004C6F6164696E679D
:1030A0002066696C616D656E7400506C6561736556
:1030B00020696E7365727420504C412066696C61A2
:1030C0006D656E7420746F20746865206578747205
:1030D000756465722C207468656E207072657373F8
:1030E000206B6E6F6220746F206C6F616420697456
:1030F0002E00506C6561736520696E736572742073
:10310000504C412066696C616D656E7420746F204F
:103110007468652066697273742074756265206FC7
:1031200066204D4D552C207468656E207072657355
:103130007320746865206B6E6F6220746F206C6FF3
:1031400061642069742E00596F752063616E20617F
:103150006C7761797320726573756D65207468652D
:103160002057697A6172642066726F6D2043616CCA
:103170006962726174696F6E202D3E2057697A61B1
:1031800072642E00506C6561736520636865636BC3
:10319000206F75722068616E64626F6F6B20616E64
:1031A0006420666978207468652070726F626C654F
:1031B0006D2E205468656E20726573756D65207480
:1031C00068652057697A617264206279207265624D
:1031D0006F6F74696E6720746865207072696E74B1
:1031E00065722E00416C6C20697320646F6E652ED1
:1031F000204861707079207072696E74696E672101
:1032000000506C6561736520636C65616E20686554
:10321000617462656420616E64207468656E2070FC
:103220007265737320746865206B6E6F622E004444
:103230006F20796F752077616E7420746F207265CE
:1032400070656174206C6173742073746570207490
:103250006F20726561646A75737420646973746148
:103260006E6365206265747765656E206E6F7A7A2D
:103270006C6520616E6420686561746265643F00FE
:10328000492077696C6C20737461727420746F20AC
:103290007072696E74206C696E6520616E6420794D
:1032A0006F752077696C6C206772616475616C6CF6
:1032B00079206C6F77657220746865206E6F7A7AFA
:1032C0006C6520627920726F746174696E67207416
:1032D0006865206B6E6F622C20756E74696C207946
:1032E0006F75207265616368206F7074696D616CC1
:1032F000206865696768742E20436865636B207475
:10330000686520706963747572657320696E206FDB
:1033100075722068616E64626F6F6B20696E2063E6
:103320006861707465722043616C6962726174696E
:103330006F6E2E004E6F7720492077696C6C20638A
:10334000616C6962726174652064697374616E6333
:1033500065206265747765656E20746970206F669C
:1033600020746865206E6F7A7A6C6520616E6420C7
:103370006865617462656420737572666163652E49
:1033800000497320697420504C412066696C616D5E
:10339000656E743F0053656C656374206E6F7A7A56
:1033A0006C6520707265686561742074656D706508
:1033B000726174757265207768696368206D6174E5
:1033C0006368657320796F7572206D6174657269C9
:1033D000616C2E004E6F7720492077696C6C2070ED
:1033E000726568656174206E6F7A7A6C6520666FAD
:1033F0007220504C412E0049732066696C616D65E6
:103400006E74206C6F616465643F00497320666967
:103410006C616D656E742031206C6F616465643F12
:10342000004E6F7720492077696C6C207072656858
:10343000656174206E6F7A7A6C6520666F722050B9
:103440004C412E00492077696C6C2072756E207A91
:103450002063616C6962726174696F6E206E6F7750
:103460002E004E6F772072656D6F766520746865EB
:103470002074657374207072696E742066726F6D4B
:1034800020737465656C2073686565742E00506CDC
:10349000656173652072656D6F766520736869700C
:1034A00070696E672068656C7065727320666972FA
:1034B00073742E00492077696C6C2072756E2078C9
:1034C000797A2063616C6962726174696F6E206ED3
:1034D0006F772E2049742077696C6C2074616B655E
:1034E00020617070726F782E203132206D696E739A
:1034F0002E0046697273742C20492077696C6C2009
:1035000072756E207468652073656C66746573747B
:1035100020746F20636865636B206D6F7374206324
:103520006F6D6D6F6E20617373656D626C79207065
:10353000726F626C656D732E0048692C20492061A2
:103540006D20796F7572204F726967696E616C20AA
:103550005072757361206933207072696E74657280
:103560002E20576F756C6420796F75206C696B65C0
:10357000206D6520746F20677569646520796F75AB
:10358000207468726F75676820746865207365744D
:1035900075702070726F636573733F00452D636FA4
:1035A0007272656374005A2D636F72726563740082
:1035B000592D636F727265637400582D636F727258
:1035C0006563740053706F6F6C4A6F696E202020C2
:1035D0005B4E2F415D0053706F6F6C4A6F696E20B8
:1035E00020205B6F66665D0053706F6F6C4A6F6979
:1035F0006E202020205B6F6E5D00536F756E64201F
:1036000020202020205B6C6F75645D00536F756E09
:10361000642020202020205B6D7574655D00536F51
:10362000756E64202020205B73696C656E745D008C
:10363000536F756E642020202020205B6F6E6365C1
:103640005D00536F756E642020202020205B6C6F1E
:1036500075645D00536F7274202020202020205B51
:103660006E6F6E655D00536F72742020205B616C1D
:103670007068616265745D00536F72742020202051
:103680002020205B74696D655D0053442063617286
:103690006420205B6E6F726D616C5D00534420632B
:1036A000617264205B666C73684169725D005250A0
:1036B0006920706F727420202020205B6F6E5D0087
:1036C00052506920706F7274202020205B6F6666F4
:1036D0005D0054656D702E2063616C2E2020205B90
:1036E0006F6E5D0054656D702E2063616C2E20201E
:1036F0005B6F66665D004C696E2E20636F7272654B
:103700006374696F6E004D65736820626564206C38
:103710006576656C696E67004D4D55204D6F64652B
:103720005B537465616C74685D004D4D55204D6F41
:103730006465205B4E6F726D616C5D0046616E73F7
:1037400020636865636B20205B6F66665D00466181
:103750006E7320636865636B2020205B6F6E5D0075
:10376000462E206175746F6C6F6164205B6F6666B6
:103770005D00462E206175746F6C6F616420205B64
:103780006F6E5D00462E206175746F6C6F616420F2
:103790005B4E2F415D0044697361626C65207374F8
:1037A000657070657273004D6F766520617869731E
:1037B0000054656D706572617475726500473830CC
:1037C000004D3435004D3435205A00473736005708
:1037D000697A6172642073746174653A20256400AB
:1037E00044697361626C65206661726D206D6F64FF
:1037F00065004661726D206E756D626572004D38B0
:10380000340057697A61726420656E642073746154
:1038100074653A2025640A0024F4D43050C38E2005
:10382000C2A24017828B7011127A910D816CD90A55
:10383000A861E108C7586607615143061E4B5D0544
:10384000C145A7041A411104093D98037139310398
:103850004036DB0265339102D4305402802E1D02C3
:10386000632CEE01752AC501B028A0011027810143
:103870008F2564012B244B01E0223401AC211F0170
:103880008D200D01801FFC00841EED00971DDF00C0
:10389000B81CD200E61BC600201BBC00641AB20094
:1038A000B219A8000A19A0006A189900D11791004E
:1038B00040178B00B516840031167E00B3157900D1
:1038C0003A157300C7146F0058146A00EE136600AF
:1038D0008813630025135E00C7125B006C1257004B
:1038E00015125400C111510070114F0021114B00ED
:1038F000D61049008D1047004610440002104200C7
:10390000C00F4000800F3E00420F3C00060F3B00FE
:10391000CB0E3800930E37005C0E3500270E3400B6
:10392000F30D3200C10D3100900D3000600D2E00FE
:10393000320D2D00050D2C00D90C2B00AE0C2900EA
:10394000850C29005C0C2700350C27000E0C260086
:10395000E80B2400C40B2400A00B23007D0B2300E4
:103960005A0B2100390B2100180B2000F80A1F0008
:10397000D90A1E00BB0A1E009D0A1D00800A1D00F8
:10398000630A1C00470A1B002C0A1B00110A1A00BC
:10399000F7091A00DD091900C4091900AB0919005B
:1039A000920917007B091800630917004C091600DB
:1039B00036091600200916000A091500F508150039
:1039C000E0081400CC081400B8081400A40814007F
:1039D000900813007D0812006B08130058081200AD
:1039E00046081200340811002308110012081100C3
:1039F00001081100F0071000E0071000D0071000C8
:103A0000C0071000B0070F00A107100091070E00BB
:103A100083070F0074070F0065070E0057070E009D
:103A200049070E003B070D002E070E0020070D0072
:103A300013070D0006070D00F9060C00ED060D003A
:103A4000E0060C00D4060C00C8060C00BC060C00F6
:103A5000B0060C00A4060B0099060C008D060B00A6
:103A600082060B0077060B006C060B0061060A004D
:103A700057060B004C060A0042060A0038060A00E8
:103A80002E060A0024060A001A060A00100609007B
:103A900007060A00FD050900F4050900EB05090009
:103AA000E2050900D9050900D0050900C70509008C
:103AB000BE050900B5050800AD050800A50509000B
:103AC0009C050800940508008C0508008405080082
:103AD0007C050800740508006C05070065050800F2
:103AE0005D050700560508004E050700470507005D
:103AF0004005080038050700310507002A050700C2
:103B0000230507001C050600160507000F05070022
:103B10000805060002050700FB040600F50407007F
:103B2000EE040600E8040600E2040700DB040600D9
:103B3000D5040600CF040600C9040600C30406002D
:103B4000BD040600B7040600B1040500AC0406007D
:103B5000A6040600A00405009B04060095040500C9
:103B6000900406008A040500850405008004060010
:103B70007A04050075040500700405006B04050057
:103B800066040500610405005C0405005704050097
:103B9000520405004D0405004804050043040500D7
:103BA0003E0404003A040500350405003004040016
:103BB0002C04050027040400230405001E0404004F
:103BC0001A04040016040500110404000D04040086
:103BD000090405000404040000040400FC030400BC
:103BE000F8030400F4030400F0030400EC030400F1
:103BF000E8030400E4030400E0030400DC03040021
:103C0000D8030400D4030400D0030400CC03040050
:103C1000C8030300C503030024F404D9201BC40C0B
:103C20005C0E9804C4095F0265077101F405F90090
:103C3000FB04B30048048700C10369005803550022
:103C400003034500BE023A008402310053022A00F9
:103C50002902250004022000E4011C00C80119000B
:103C6000AF011700980114008401130071011000C6
:103C70006101100051010E0043010D0036010B00DF
:103C80002B010B0020010B00150109000C0109009C
:103C900003010800FB000800F3000800EB00070028
:103CA000E4000600DE000600D8000600D200060090
:103CB000CC000500C7000500C2000500BD000400DF
:103CC000B9000400B5000400B1000400AD00040018
:103CD000A9000400A5000300A20003009F00040047
:103CE0009B0003009800030095000200930003006E
:103CF000900003008D0002008B000300880002008A
:103D00008600020084000300810002007F000200A0
:103D10007D0002007B0002007900020077000100B4
:103D200076000200740002007200010071000200BF
:103D30006F0002006D0001006C0002006A000100CB
:103D400069000200670001006600010065000100D3
:103D500064000200620001006100010060000100D7
:103D60005F0002005D0001005C0001005B000100DB
:103D70005A000100590001005800010057000100DD
:103D800056000100550001005400010053000000DE
:103D900053000100520001005100010050000100D9
:103DA0004F0001004E0000004E0001004D000100D8
:103DB0004C0001004B0000004B0001004A000100D4
:103DC00049000100480000004800010047000100D0
:103DD00046000000460001004500000045000100CB
:103DE00044000100430000004300010042000000C5
:103DF00042000100410000004100010040000100BC
:103E00003F0000003F0001003E0000003E000100B6
:103E10003D0000003D0001003C0000003C000000AF
:103E20003C0001003B0000003B0001003A000000A4
:103E30003A0001003900000039000100380000009C
:103E40003800000038000100370000003700010092
:103E5000360000003600000036000100350000008A
:103E6000350000003500010034000000340000007F
:103E70003400010033000000330000003300010073
:103E8000320000003200000032000100310000006A
:103E9000310000003100010030000000300000005F
:103EA000300001002F0000002F0000002F00000054
:103EB0002F0001002E0000002E0000002E00010047
:103EC0002D0000002D0000002D0000002D0001003D
:103ED0002C0000002C0000002C0000002C00010031
:103EE0002B0000002B0000002B0000002B00010025
:103EF0002A0000002A0000002A0000002A00010019
:103F0000290000002900000029000000290000000D
:103F100029000100280000002800000028000000FF
:103F200028000000280001002700000027000000F2
:103F300027000000270000002700010026000000E5
:103F400026000000260000002600000026000100D8
:103F500025000000250000002500000025000000CD
:103F600025000000250001002400000024000000BE
:103F700024000000240000002400010023000000B1
:103F800023000000230000002300000023000000A5
:103F90002300000023000100220000002200000096
:103FA0002200000022000000220000002200010088
:103FB000210000002100000021000000210000007D
:103FC000210000002100000021000100200000006D
:103FD0002000000020000000200000002000000061
:103FE0002000000020000000200001001F00000051
:103FF0001F0000001F0000001F0000001F00000045
:104000001F0000001F0001001E0000001E00000035
:104010001E0000001E00000046616C736520747273
:104020006967676572696E67005377617070656470
:104030000046726F6E742F6C6566742066616E73D5
:1040400000417869730041786973206C656E67740C
:1040500068004C6F6F73652070756C6C65790045F6
:104060006E6473746F70206E6F742068697400459D
:104070006E6473746F70004D6F746F7200456E6480
:1040800073746F707300576972696E67206572721E
:104090006F7200426564202F20486561746572006C
:1040A0004E6F7420636F6E6E65637465640048655F
:1040B000617465722F546865726D6973746F7200F4
:1040C000506C6561736520636865636B203A0053CB
:1040D000656C6674657374206572726F722021005E
:1040E00046696C616D656E742073656E736F7200E6
:1040F0005072696E742066616E3A0045787472750C
:104100006465722066616E3A0043616C6962726137
:1041100074696E6720686F6D650053656C667465C1
:104120007374206661696C6564202000416C6C20AA
:10413000636F727265637420202020202000436822
:1041400065636B696E672073656E736F72732000B1
:10415000436865636B696E6720686F74656E642081
:104160002000436865636B696E6720626564202088
:1041700020202000436865636B696E67205A2061C8
:10418000786973202000436865636B696E67205906
:104190002061786973202000436865636B696E67EE
:1041A00020582061786973202000436865636B693B
:1041B0006E6720656E6473746F7073004572726F02
:1041C00072202D20737461746963206D656D6F7248
:1041D0007920686173206265656E206F76657277FD
:1041E00072697474656E00436172642072656D6FEC
:1041F000766564002D2D2D2D2D2D2D2D2D2D2D2D64
:104200002D2D2D2D2D2D2D2D000000000000110A2B
:1042100004505255534133444657002079303D25D0
:10422000640A002078303D25640A004F4B0A00459F
:1042300052524F522061643D25640A002020207AAA
:10424000303D25640A00207A303D25640A0020793B
:10425000303D25640A002078303D25640A007879D5
:104260007A63616C5F66696E645F706F696E745FBC
:1042700063656E746572320A000000210024002715
:10428000002A002D00300033000101000004010766
:10429000010A0100002200250028002B002E003119
:1042A00000340002010000050108010B010000209C
:1042B000002300260029002C002F003200000100FE
:1042C00000030106010901050505050705080808A1
:1042D00008020202020A0A08080404040401010197
:1042E000010101010103030303030303030407079F
:1042F000070C0C0C0C0C0C0C0C020202020606063D
:1043000006060606060B0B0B0B0B0B0B0B07070A1F
:104310000A0A0A0A0A05050504040408080102102D
:1043200020200808102040102040800201020108CF
:10433000040201010204081020408080402010087F
:1043400004020180040201804020100804020108D8
:104350000402010102040810204080010204081038
:104360002040801008040880102040044080102065
:1043700040048000000A0B02090C0D0E080703041C
:10438000010000000000000000000000000000002C
:10439000000000000000000000000000000000120B
:1043A00011100000000000000000000000000000EC
:1043B00000000000000000000000000000000000FD
:1043C00000000000000000000043757272656E740A
:1043D000005573656420647572696E672070726938
:1043E0006E74005049442063616C2E2066696E69CA
:1043F00073686564005049442063616C2E2020205E
:10440000202020202020202000506C656173652032
:1044100077616974004D31313720466972737420B9
:104420006C617965722063616C2E005072696E74E4
:104430002070617573656400496E76616C696420F3
:104440005049442063616C2E20726573756C7473DF
:104450002E204E6F742073746F72656420746F2009
:10446000454550524F4D2E004D35303000473120DC
:104470005A31352046313530300047393100473127
:1044800020583530205931393020453020463730DA
:10449000303000473930004D373032004D37303240
:1044A0002043004D3730322055004D373032004D1B
:1044B0003730322043004731205A313520463135DC
:1044C00030300047393100473120583530205931DC
:1044D0003930204530204637303030004D383300F9
:1044E000473930004D3834004D31303420533000DE
:1044F0004D3834004D373032204300473120583199
:1045000030205931383020463430303000473120A7
:104510005A31302046313330302E303030004D317A
:104520003430205330004D31303420533000473187
:1045300020452D302E303735303020463231303066
:104540002E3030303030004D313037004731205878
:104550003530205935352045332E36323737330044
:1045600047312058323030205935352045302E34EF
:1045700039333836004731205832303020593735FA
:104580002045332E36323737330047312058353007
:10459000205937352045302E3439333836004731ED
:1045A00020583530205939352045332E36323737AB
:1045B00033004731205832303020593935204530CA
:1045C0002E343933383600473120583230302059B4
:1045D0003131352045332E363237373300473120DD
:1045E00058353020593131352045302E3439333863
:1045F0003600473120583530205931333520453386
:104600002E36323737330047312058323030205978
:104610003133352045302E3636313734004731209E
:104620005832303020593135352045322E36323728
:10463000373300473120583130302059313535205B
:10464000453200473120583735205931353520451E
:10465000322E350047312046313038300047312086
:104660005A302E3135302046373230302E3030300F
:104670000047312058353020593135350047312039
:104680004634303030004D32303420533130303009
:10469000004731205A352046373230302E30303006
:1046A00000473120452D312E353030303020463214
:1046B0003130302E3030303030004D383300473913
:1046C0003000473231004739322045302E30004724
:1046D0003120583130302E30204531322E352046B1
:1046E000313030302E30004731205836302E3020D7
:1046F00045392E302046313030302E3000473120C1
:1047000058352E302045342E302046313030302E72
:1047100030004731205A302E323020463130303090
:104720002E30004731205835352E30204532352087
:1047300046313430302E3000473120592D322E3062
:104740002046313030302E3000473120583234305E
:104750002E30204532352E30202046323230302E59
:1047600030004739322045302E30004731205A3052
:104770002E332046313030302E300047312058352E
:10478000352E302045382E302046323030302E3015
:104790000047312058352E30204533322E30204608
:1047A000313830302E30004731205835352E30200A
:1047B0004533322E302046313037332E30004731EA
:1047C000205A302E342046313030302E30004731E0
:1047D00020592D332E302046313030302E30004DD0
:1047E0003833004739322045302E30004732380008
:1047F0004D3130392053323135004D31393020536D
:104800003630004D31343020533630004D313034A5
:104810002053323135004D31303700580059005A9D
:10482000002563252E3132533A2573252B30362E41
:1048300033660020003E003E0020003E003E005453
:10484000656D70657261747572652063616C696213
:10485000726174696F6E206661696C65642E2043B5
:104860006F6E74696E756520776974682070726503
:104870007373696E6720746865206B6E6F622E00BB
:1048800054656D70657261747572652063616C69E1
:1048900062726174696F6E20646F6E652E20436F63
:1048A0006E74696E756520776974682070726573BF
:1048B00073696E6720746865206B6E6F622E0041AD
:1048C000646A757374696E67205A00526573657403
:1048D00000526561722073696465205B756D5D00CF
:1048E00046726F6E7420736964655B756D5D00520E
:1048F0006967687420736964655B756D5D004C65FC
:1049000066742073696465205B756D5D0053657422
:104910002074656D70657261747572653A005465D6
:104920006D70657261747572652063616C69627225
:104930006174696F6E206661696C65640054656DB1
:1049400070657261747572652063616C6962726111
:1049500074696F6E2069732066696E697368656437
:1049600020616E64206163746976652E2054656DE4
:10497000702E2063616C6962726174696F6E20636E
:10498000616E2062652064697361626C6564206990
:104990006E206D656E752053657474696E67732D36
:1049A0003E54656D702E2063616C2E004E2F4100C9
:1049B000202030002020310049523A0046494E4420
:1049C000413A0050494E44413A0053656E736F724C
:1049D0002073746174650053442063617264206FB6
:1049E0006B006F70656E526F6F74206661696C65E5
:1049F0006400766F6C756D652E696E6974206661F2
:104A0000696C656400534420696E6974206661694D
:104A10006C0057726974696E6720746F2066696CE8
:104A2000653A200046696C652073656C6563746542
:104A300064002053697A653A200046696C65206FEE
:104A400070656E65643A20006F70656E20666169FE
:104A50006C65642C2046696C653A20001F1F1F1F7F
:104A60001F1F1F1F2E002E004E6F7720667265736A
:104A7000682066696C653A20004E6F7720646F6924
:104A80006E672066696C653A20002220706F7300A3
:104A90002220706172656E743A2200535542524F63
:104AA0005554494E452043414C4C20746172676512
:104AB000743A2200747279696E6720746F206361A2
:104AC0006C6C207375622D67636F64652066696C1A
:104AD0006573207769746820746F6F206D616E79DB
:104AE000206C6576656C732E204D4158206C657680
:104AF000656C2069733A002E00536F7274696E679B
:104B00002066696C657300536F6D652066696C651E
:104B1000732077696C6C206E6F7420626520736FF0
:104B2000727465642E204D61782E204E6F2E206F9A
:104B3000662066696C657320696E203120666F6C33
:104B400064657220666F7220736F7274696E67207D
:104B50006973203130302E00776F726C6420636F80
:104B60006F7264696E617465733A2028252E33660E
:104B70002C20252E33662C20252E3366290A007022
:104B80006879736963616C20636F6F7264696E61C9
:104B90007465733A2028252E33662C20252E336623
:104BA0002C20252E3366290A0043757272656E74B7
:104BB00020706F73205A5F415849533A252E33664F
:104BC0000A43757272656E7420706F7320455F4181
:104BD0005849533A252E33660A004166746572209F
:104BE00077616974696E6720666F722074656D7095
:104BF0003A0A43757272656E7420706F7320585F45
:104C0000415849533A252E33660A43757272656ED0
:104C10007420706F7320595F415849533A252E33E1
:104C2000660A007265636F7665725F6D61636869BD
:104C30006E655F73746174655F61667465725F70E1
:104C40006F7765725F70616E69632C20696E69743D
:104C500069616C20007265636F7665725F6D616378
:104C600068696E655F73746174655F6166746572AF
:104C70005F706F7765725F70616E69632C20696E1B
:104C8000697469616C2000473932204500505255E3
:104C900053412075766C6F004734205330004D32FD
:104CA000362053256C75004D3130362053004D3879
:104CB00032004731204625640047312045322A64BE
:104CC000656661756C745F72657472616374696F37
:104CD0006E2046343830004731205A0020463230AA
:104CE00030300020590047312058004D38330050F3
:104CF0006F736974696F6E20726561642066726F8C
:104D00006D20656570726F6D3A004D3233202573EA
:104D1000002E67636F0046656564726174653A00D2
:104D2000473120452D64656661756C745F726574EA
:104D300072616374696F6E204634383000473120E9
:104D400045352046313230004D3833004D31393051
:104D500020532564004D31303920532564004732FB
:104D60003820582059004731205A323520463830F3
:104D700030002046004731205A00204600473120AD
:104D800045004D3833006F6B0A00627573793A2025
:104D900070617573656420666F7220696E707574DA
:104DA00000627573793A2070617573656420666F6F
:104DB00072207573657200627573793A2070726F34
:104DC00063657373696E67000000211042206330D1
:104DD0008440A550C660E770088129914AA16BB153
:104DE0008CC1ADD1CEE1EFF13112100273325222FB
:104DF000B5529442F772D662399318837BB35AA3A3
:104E0000BDD39CC3FFF3DEE36224433420040114CA
:104E1000E664C774A44485546AA54BB528850995F2
:104E2000EEE5CFF5ACC58DD553367226111630069A
:104E3000D776F6669556B4465BB77AA71997388742
:104E4000DFF7FEE79DD7BCC7C448E5588668A7785A
:104E50004008611802282338CCC9EDD98EE9AFF992
:104E6000488969990AA92BB9F55AD44AB77A966A3A
:104E7000711A500A333A122AFDDBDCCBBFFB9EEBE2
:104E8000799B588B3BBB1AABA66C877CE44CC55C0A
:104E9000222C033C600C411CAEED8FFDECCDCDDD32
:104EA0002AAD0BBD688D499D977EB66ED55EF44EDA
:104EB000133E322E511E700E9FFFBEEFDDDFFCCF82
:104EC0001BBF3AAF599F788F8891A981CAB1EBA1D6
:104ED0000CD12DC14EF16FE18010A100C230E32052
:104EE0000450254046706760B9839893FBA3DAB3FA
:104EF0003DC31CD37FE35EF3B1029012F322D232A2
:104F00003542145277625672EAB5CBA5A8958985C9
:104F10006EF54FE52CD50DC5E234C324A0148104F1
:104F20006674476424540544DBA7FAB79987B89799
:104F30005FE77EF71DC73CD7D326F2369106B01641
:104F400057667676154634564CD96DC90EF92FE959
:104F5000C899E9898AB9ABA9445865480678276891
:104F6000C018E1088238A3287DCB5CDB3FEB1EFB39
:104F7000F98BD89BBBAB9ABB754A545A376A167AE1
:104F8000F10AD01AB32A923A2EFD0FED6CDD4DCD09
:104F9000AABD8BADE89DC98D267C076C645C454C31
:104FA000A23C832CE01CC10C1FEF3EFF5DCF7CDFD9
:104FB0009BAFBABFD98FF89F176E367E554E745E81
:104FC000932EB23ED10EF01E5265636F7665726904
:104FD0006E67207072696E74202020200054656D09
:104FE000702E2063616C6962726174696F6E005229
:104FF000657365742058595A2063616C6962722E1A
:10500000005049442063616C6962726174696F6E1B
:1050100000426564206C6576656C20636F72726512
:105020006374004D65736820426564204C65766545
:105030006C696E670043616C696272617465205AC5
:105040000043616C6962726174652058595A00535B
:10505000656C667465737420202020202020202039
:10506000004669727374206C617965722063616CAB
:105070002E0057697A617264004C6F616420666922
:105080006C616D656E742035004C6F6164206669DB
:105090006C616D656E742034004C6F6164206669CC
:1050A0006C616D656E742033004C6F6164206669BD
:1050B0006C616D656E742032004C6F6164206669AE
:1050C0006C616D656E742031004C6F616420616CA1
:1050D0006C004C6F61642066696C616D656E742054
:1050E00035004C6F61642066696C616D656E74207B
:1050F00034004C6F61642066696C616D656E74206C
:1051000033004C6F61642066696C616D656E74205C
:1051100032004C6F61642066696C616D656E74204D
:105120003100456A6563742066696C616D656E74F3
:10513000203500456A6563742066696C616D656E33
:1051400074203400456A6563742066696C616D651E
:105150006E74203300456A6563742066696C616D06
:10516000656E74203200456A6563742066696C61FF
:105170006D656E74203100506C65617365207075CB
:105180006C6C206F75742066696C616D656E74203F
:10519000696D6D6564696174656C7900556E6C6FDD
:1051A0006164696E672066696C616D656E7400523A
:1051B0006573756D696E67207072696E74005375E2
:1051C00070706F7274004661696C207374617473DF
:1051D000204D4D55004661696C20737461747300F5
:1051E0005374617469737469637320200043616C44
:1051F0006962726174696F6E004175746F4C6F61A2
:10520000642066696C616D656E7400456A656374DF
:105210002066696C616D656E7400556E6C6F6164BB
:105220002066696C616D656E74004C6F61642074FA
:105230006F206E6F7A7A6C65004C6F6164206669CE
:105240006C616D656E74004E6F2053442063617213
:1052500064005072696E742066726F6D2053440052
:10526000526573756D65207072696E74005061755A
:105270007365207072696E74005072656865617440
:105280000054756E65004C6976652061646A7573BB
:1052900074205A00496E666F2073637265656E00F4
:1052A00046696E697368696E67206D6F76656D65B6
:1052B0006E747300536F756E642020202020205B75
:1052C0006C6F75645D00536F756E64202020202024
:1052D000205B6D7574655D00536F756E64202020D2
:1052E000205B73696C656E745D00536F756E64202E
:1052F00020202020205B6F6E63655D00536F756E0C
:10530000642020202020205B6C6F75645D004D4D73
:1053100055204D6F64655B537465616C74685D0006
:105320004D4D55204D6F6465205B4E6F726D616C05
:105330005D004372617368206465742E20205B4EAB
:105340002F415D004372617368206465742E2020D4
:10535000205B6F6E5D004372617368206465742E1C
:1053600020205B6F66665D004D6F64652020202005
:105370005B537465616C74685D004D6F64652020DB
:105380002020205B4E6F726D616C5D0046696C2E53
:105390002073656E736F7220205B6F6E5D004669CF
:1053A0006C2E2073656E736F72205B6F66665D0096
:1053B0004368616E67652066696C616D656E740037
:1053C000466C6F77005370656564004D3434004758
:1053D00032382057004739390044697361626C657F
:1053E000206661726D206D6F64653F0043686F6F6A
:1053F000736520636F6C6F723A004661726D206E48
:10540000756D626572004D363030001000C90210B3
:10541000012C014001220170011801B0010E01F0C0
:105420000104015002FA00B002F0003003E600D09F
:1054300003DC009004D2007005C800A006BE000086
:1054400008B400B009AA00D00BA000600E9600605E
:10545000118C000015820020197800C01D6E00A07C
:10546000226400B0275A00902C500000314600E022
:10547000343C0010383200903A2800603C1E00A0F6
:105480003D1400803E0A00203F000090137D00B0D4
:10549000157800F0177300601A6E00F01C6900A008
:1054A0001F640050225F0020255A00E0275500901D
:1054B0002A5000202D4B00A02F4600F03141001053
:1054C000343C00F0353700A037320020392D006021
:1054D0003A2800703B2300603C1E00203D1900C0AC
:1054E0003D1400403E0F00A03E0A00F03E05004083
:1054F0003F0000703FFBFF903FF6FFB03FF1FFC061
:105500003FECFFD03FE7FFE03FE2FFF03FDDFFF081
:105510003FD8FF20484F54454E4420544845524DF3
:10552000414C2052554E4157415900204845415465
:1055300042454420544845524D414C2052554E411D
:1055400057415900544845524D414C2052554E4107
:105550005741590042454420544845524D414C2042
:1055600052554E415741590020544845524D414CE7
:105570002052554E41574159202820505245484508
:10558000415420484F54454E442900205448455228
:105590004D414C2052554E415741592028205052E0
:1055A000454845415420484541544245442900500E
:1055B000524548454154204552524F5200424544BD
:1055C0002050524548454154204552524F520045C3
:1055D00072723A204D494E54454D50003A2045785C
:1055E000747275646572207377697463686564208A
:1055F0006F66662E204D494E54454D502074726999
:105600006767657265642021004572723A204D49D2
:105610004E54454D50204245440054656D706572AE
:105620006174757265206865617465642062656483
:10563000207377697463686564206F66662E204DF9
:10564000494E54454D5020747269676765726564B0
:105650002021004D61676E65747320636F6D702E3D
:105660005B4E2F415D004D61676E65747320636F03
:105670006D702E5B4F66665D004D61676E6574737D
:1056800020636F6D702E205B4F6E5D005A2D70721F
:105690006F6265206E722E202020205B335D005AE1
:1056A0002D70726F6265206E722E202020205B3577
:1056B0005D005A2D70726F6265206E722E20202060
:1056C000205B315D004D6573682020202020202064
:1056D00020205B3778375D004D65736820202020DF
:1056E00020202020205B3378335D0046616E2073DC
:1056F0007065656400426564004E6F7A7A6C65007F
:1057000053657474696E6773005072696E742061BA
:10571000626F7274656400596573004E6F00537454
:105720006F70207072696E740046696C6520696ED6
:10573000636F6D706C6574652E20436F6E74696E57
:10574000756520616E797761793F004261636B0016
:105750004D61696E004D3234004D323320257300A7
:10576000052E2E004572723A205052494E54204662
:10577000414E204552524F52005072696E7420665D
:10578000616E207370656564206973206C6F776546
:1057900072207468656E2065787065637465640056
:1057A0004572723A20455854522E2046414E2045AB
:1057B00052524F520045787472756465722066616A
:1057C0006E207370656564206973206C6F776572F5
:1057D000207468656E206578706563746564002F59
:1057E0002F20616374696F6E3A706175736500454F
:1057F00072723A204D415854454D50003A20457838
:105800007472756465722073776974636865642067
:105810006F66662E204D415854454D502074726974
:105820006767657265642021004572723A204D41B8
:105830005854454D50204245440054656D70657282
:105840006174757265206865617465642062656461
:10585000207377697463686564206F66662E204DD7
:10586000415854454D50207472696767657265648C
:1058700020210070012C0190012701B0012201C0FC
:10588000011D01F00118011002130130020E016028
:1058900002090190020401C002FF000003FA004067
:1058A00003F5008003F000D003EB002004E6007055
:1058B00004E100E004DC004005D700C005D2004050
:1058C00006CD00D006C8008007C3003008BE00F037
:1058D00008B900C009B400B00AAF00B00BAA00D0EC
:1058E0000CA500000EA000500F9B00C010960050A9
:1058F00012910000148C00C0158700B0178200B010
:10590000197D00D01B7800001E730040206E0090AF
:10591000226900F024640040275F0090295A00E0CB
:105920002B5500102E500020304B0010324600E066
:1059300033410090353C001037370070383200A0FA
:10594000392D00B03A2800A03B2300603C1E001017
:105950003D1900903D1400103E0F00703E0A00C03B
:105960003E0500003F00004D3234004D323320250B
:1059700073006175746F25692E6700222066616966
:105980006C65643A204275666665722066756C6C5B
:105990002100456E717565696E6720746F207468AB
:1059A000652066726F6E743A2022004572726F72C3
:1059B0003A002200456E717565696E6720746F202C
:1059C0007468652066726F6E743A202200656368A1
:1059D0006F3A00454550524F4D204572726F72002C
:1059E0004D373032004D373031004D373032004DB9
:1059F00037303100464C4558202D20203234302F8E
:105A000035300050502020202D20203235342F31C9
:105A100030300048495053202D20203232302F3171
:105A200030300041425320202D20203235352F3197
:105A300030300050455420202D20203233302F3874
:105A40003500504C4120202D20203231352F36306A
:105A5000004578747275646572006D6D00005900C0
:105A60005800746F20756E6C6F61642066696C619C
:105A70006D656E7400746F206C6F61642066696C74
:105A8000616D656E74005072657373207468652073
:105A90006B6E6F62003E43616E63656C00507265B1
:105AA00068656174696E6720746F20637574005057
:105AB000726568656174696E6720746F20656A65D8
:105AC00063740050726568656174696E6720746FF5
:105AD00020756E6C6F6164005072656865617469F1
