:100000000C9435320C9466320C9466320C94663241
:100010000C9466320C947CE40C9466320C94663238
:100020000C948DE70C9466320C9466320C94663214
:100030000C9466320D94CC140C9466320C94663297
:100040000C9466320D94701E0C9466320C946632D9
:100050000C9466320C9466320D94795F0D94AB1556
:100060000C9466320C94E4910C9466320C946632D3
:100070000C9466320C9466320C9466320C946632A0
:100080000C9466320C9466320C9466320C94663290
:100090000C94A0910C9466320C9466320C946632E7
:1000A0000C9466320C9466320C9466320C94663270
:1000B0000C9466320C9466320C9466320C94663260
:1000C0000C9466320C9466320C9466320C94EB9568
:1000D0000C9466320C9466320C9466320C94663240
:1000E0000C946632394E3F4E454E504E5B4EE04EBC
:1000F000664E6F4E784E834E8E4E994EA94EB44E3C
:10010000E04EBF4ECA4ED54EB79EC09E659E349EF1
:10011000059E9CA1E39E07A08EA0E8A004A13BA1A0
:1001200017C71BC721C72AC742C75FC79CC7D1C70C
:10013000620162015C0162015C014002F0010A029D
:100140008401BC01B201A60188013201D8017A0103
:100150003E01BA0134020202C80188017C01D401C7
:1001600038014A022402A4012202B60144014801D6
:100170009C0192017E01E80152021C023C01FC013B
:100180004E02B40198011202AA01AC017401D0011F
:10019000DA0180011002084AD73B3BCE016E84BCD5
:1001A000BFFDC12F3D6C74319ABD56833DDA3D00D1
:1001B000C77F11BED9E4BB4C3E916BAAAABE00001A
:1001C00000803F05A84CCDB2D44EB93836A9020CF8
:1001D00050B9918688083CA6AAAA2ABE00000080D1
:1001E0003F07634236B79BD8A71A39685618AEBA8C
:1001F000AB558C1D3CB7CC5763BD6DEDFD753EF620
:10020000177231BF000000803F08000000BE92243A
:1002100049123EABAAAA2ABECDCCCC4C3E0000006F
:1002200080BEABAAAAAA3E00000000BF000000806A
:100230003F0000000000084178D3BB4387D1133D45
:10024000190E3CC3BD4282AD2B3E68EC8276BED90E
:100250008FE1A93E4C80EFFFBE01C4FF7F3F00004D
:10026000000000000D94D0120D944B120D947B12DF
:100270000D94FE120D944E3E0D94BC440D94DE126E
:100280000D94293F0D9455890D945A1D0D94C7194D
:100290000D94601D0D94473E0D94A68D0D946B8EAC
:1002A0000D940F0D0D9499120D94798D0D94375670
:1002B0000D9467510D943D100D9405120D94930B00
:1002C0000D94553E0D9402120D94AC3F0D941D3FBC
:1002D0000D94B4890D9496420D9438130D94875162
:1002E0000D940E090D94D92A0D944B450D94888ECA
:1002F0000D945F3E0D94DA120D94F6120D948A1D42
:100300000D9468450D94C1130D94CC120D94692A77
:100310000D9403130D94B52B0D94F4420D94668A3D
:100320000D94F3500D947C1D0D9423060D947C5177
:100330000D9413450D94AF070D946E1D0D945E3F03
:100340000D94D0060D94C52D0D94261D0D94C51247
:100350000D9455550D943A450D9448450D948B12C6
:100360000D942F130D94BF120D94E5440D94541D5C
:100370000D94EB8C0D94E2120D94BB120D94CA886F
:100380000D9433130D94A0120D945A510D94C28EF6
:100390000D94F0120D94810B0D94C6450D94DA0660
:1003A0000D944D450D948B8A0D94FA120D944E8E3A
:1003B0000D94D4120D9457450D947C3E0D94F48DFC
:1003C0000D94A23E0D943D540D94DF8E0D94368D08
:1003D0000D94A11D0D949A3F0D94333F0D94BE0CC6
:1003E0000D940B120D94D82B0D94780B0D94C952CB
:1003F0000D94B1500D94CA560D94CE440D94D7ABC4
:100400000D94A7120D94EC120D9429130D94BC07B2
:100410000D94C6550D94C9120D94058E0D948350FC
:100420000D9479450D9434450D94318E0D94D40E70
:100430000D94792B0D94B4520D94A6440D94AA06F4
:100440000D94B62A0D94381D0D94201D0D94742A18
:100450000D94C6060D94450E0D94EA3D0D94F88852
:100460000D94658C0D9426890D94E8120D94663ECA
:100470000D948A0B0D943D3F0D94B1130D9484128D
:100480000D9408120D9481540D94148E0D940B2B21
:100490000D945EB50D94121D0D94A58E0D94DB4444
:1004A0000D9497080D94AF1D0D9492120D94631244
:1004B0006E616E00696E66004E414E494E49545958
:1004C000494E46CDCCCC3D0AD7233C17B7D138771F
:1004D000CC2B329595E6241FB14F0A000020410035
:1004E00000C84200401C4620BCBE4CCA1B0E5AAE7F
:1004F000C59D7400407A10F35A00A0724E1809008E
:1005000010A5D4E80000E87648170000E40B540278
:100510000000CA9A3B000000E1F5050000809698B3
:1005200000000040420F000000A086010000001003
:100530002700000000E80300000000640000000045
:10054000000A00000000000100000000002C76D826
:1005500088DC674F0823DFC1DFAE59E1B1B796E50C
:10056000E3E453C63AE651997696E8E6C28426EB70
:10057000898C9B62ED407C6FFCEFBC9C9F40F2BA83
:10058000A56FA5F490055A2AF75C936B6CF9676D1B
:10059000C11BFCE0E40D47FEF520E6B500D0ED9070
:1005A0002E0300943577050080841E080000204E3D
:1005B0000A000000C80C333333330F986E128311D6
:1005C00041EF8D2114893BE65516CFFEE6DB18D1AD
:1005D000844B381BF77C1D901DA4BBE4242032847F
:1005E000725E228100C9F124ECA1E53D27636469B4
:1005F0006E6F70737578585B00256420627974653E
:1006000073207772697474656E20746F204545504D
:10061000524F4D20617420616464726573732030A1
:100620007825303478004433202D20526561642FC2
:10063000577269746520454550524F4D0A0020435A
:100640006F756E7420583A20005344207072696EA2
:1006500074696E67206279746520004E6F7420693A
:100660006E206661726D206D6F64652E004163744B
:100670006976652045787472756465723A20004920
:100680006E76616C69642065787472756465720059
:100690005A204F666673657400556E6B6E6F776E89
:1006A00020636F6D6D616E643A2022004D323030F0
:1006B00020496E76616C6964206578747275646532
:1006C0007220007A5F6D61783A20007A5F6D696E02
:1006D0003A2000795F6D61783A2000795F6D696E2C
:1006E0003A2000785F6D61783A20006F70656E0087
:1006F00054524947474552454400785F6D696E3A08
:1007000020005265706F7274696E6720656E647345
:10071000746F7020737461747573000053494C4595
:100720004E54004E4F524D414C002553204D4F44E6
:10073000453A2050657263656E7420646F6E653A49
:100740002025643B207072696E742074696D652089
:1007500072656D61696E696E6720696E206D696E84
:10076000733A2025640A00456E642066696C652032
:100770006C69737400426567696E2066696C6520F8
:100780006C697374000A50494E44412074656D7061
:10079000657261747572653A20252E3166205A2083
:1007A000736869667420286D6D293A20252E33669A
:1007B000000A537465703A2025642F360A000A53E4
:1007C0007465703A2025642F362028736B69707029
:1007D0006564290A50494E44412074656D70657204
:1007E00061747572653A202564205A2073686966C1
:1007F0007420286D6D293A300A000A5A45524F3A42
:1008000020252E33660A0073746172742074656D3E
:1008100070657261747572653A20252E31660A0022
:1008200025642020252E326600255320583A2025A5
:100830002E356620593A20252E3566205A3A202535
:100840002E35660A00536C6565702E2E2E004E6F95
:100850007420696E206661726D206D6F64652E0074
:1008600025640045303A25642052504D0A50524EBE
:10087000303A25642052504D0A00256400442D3141
:10088000202D20456E646C657373206C6F6F700A49
:10089000004175746F0020452F443D00416476612E
:1008A0006E6365204B3D004D323230205325690088
:1008B000255346696C616D656E7420736574746947
:1008C0006E67733A2044697361626C65640A00253F
:1008D0005346696C616D656E742073657474696EDE
:1008E00067733A0A25532020204D323030204425AA
:1008F0002E32660A002553526574726163743A2081
:10090000533D4C656E67746820286D6D2920463A0A
:10091000537065656420286D6D2F6D29205A3A202B
:100920005A4C69667420286D6D290A2553202020B1
:100930004D3230372053252E32662046252E326622
:10094000205A252E32660A25535265636F766572EA
:100950003A20533D4578747261206C656E67746807
:1009600020286D6D2920463A537065656420286DF6
:100970006D2F6D290A25532020204D323038205309
:10098000252E32662046252E32660A25534175747F
:100990006F2D526574726163743A20533D30207438
:1009A0006F2064697361626C652C203120746F2044
:1009B000696E74657270726574206578747275649E
:1009C000652D6F6E6C79206D6F7665732061732075
:1009D0007265747261637473206F72207265636FE5
:1009E0007665726965730A25532020204D323039AF
:1009F000205325640A0025535049442068656174DA
:100A00006265642073657474696E67733A0A25536E
:100A10002020204D3330342050252E3266204925A9
:100A20002E32662044252E32660A00255350494452
:100A30002073657474696E67733A0A255320202009
:100A40004D3330312050252E32662049252E326616
:100A50002044252E32660A00255353746570732096
:100A600070657220756E69743A0A255320204D39DD
:100A7000322058252E32662059252E3266205A25DE
:100A80002E32662045252E32660A2553555374654D
:100A900070207265736F6C7574696F6E3A200A25E9
:100AA00053204D3335302058256420592564205A71
:100AB0002564204525640A25534D6178696D756D5F
:100AC00020666565647261746573202D206E6F7297
:100AD0006D616C20286D6D2F73293A0A25532020F3
:100AE0004D3230332058252E32662059252E32665D
:100AF000205A252E32662045252E32660A25534D72
:100B00006178696D756D2066656564726174657381
:100B1000202D20737465616C746820286D6D2F73AF
:100B2000293A0A255320204D3230332058252E32C1
:100B3000662059252E3266205A252E3266204525FC
:100B40002E32660A25534D6178696D756D2061639B
:100B500063656C65726174696F6E202D206E6F72B3
:100B60006D616C20286D6D2F7332293A0A25532050
:100B7000204D3230312058256C752059256C752058
:100B80005A256C752045256C750A25534D61786989
:100B90006D756D20616363656C65726174696F6EFC
:100BA000202D20737465616C746820286D6D2F731F
:100BB00032293A0A255320204D3230312058256CF5
:100BC000752059256C75205A256C752045256C7546
:100BD0000A2553416363656C65726174696F6E3A8F
:100BE00020533D616363656C65726174696F6E2C3F
:100BF00020543D7265747261637420616363656C37
:100C000065726174696F6E0A255320204D3230344D
:100C10002053252E32662054252E32660A25534154
:100C20006476616E636564207661726961626C6589
:100C3000733A20533D4D696E206665656472617438
:100C40006520286D6D2F73292C20543D4D696E2031
:100C500074726176656C2066656564726174652086
:100C6000286D6D2F73292C20423D6D696E696D755D
:100C70006D207365676D656E742074696D652028DD
:100C80006D73292C20583D6D6178696D756D205804
:100C900059206A65726B20286D6D2F73292C2020D6
:100CA0005A3D6D6178696D756D205A206A65726B69
:100CB00020286D6D2F73292C2020453D6D617869AA
:100CC0006D756D2045206A65726B20286D6D2F73E0
:100CD000290A255320204D3230352053252E3266E7
:100CE0002054252E32662042252E32662058252E8D
:100CF00032662059252E3266205A252E326620452E
:100D0000252E32660A2553486F6D65206F6666731F
:100D1000657420286D6D293A0A255320204D323004
:100D2000362058252E32662059252E3266205A2527
:100D30002E32660A004625642025640A004D4D5572
:100D4000203C3D2027462564202564270A00504981
:100D500044204175746F74756E652066696E6973A1
:100D6000686564212050757420746865206C617317
:100D700074204B702C204B6920616E64204B6420E2
:100D8000636F6E7374616E74732066726F6D206131
:100D9000626F766520696E746F20436F6E66696757
:100DA00075726174696F6E2E6800504944204175F8
:100DB000746F74756E65206661696C65642120745A
:100DC000696D656F75740020403A00543A00423AEC
:100DD00000504944204175746F74756E65206661DA
:100DE000696C6564212054656D70657261747572FB
:100DF0006520746F6F206869676800204B643A2033
:100E000000204B693A2000204B703A200020436CB0
:100E100061737369632050494420002054753A205F
:100E200000204B753A2000206D61783A2000206D3B
:100E3000696E3A200020643A200020626961733AAA
:100E4000200020453A00205A3A0020593A00204517
:100E50003A00205A3A0020593A00583A00005A30D5
:100E6000005A3100593000593100583000583100D3
:100E7000456E642073746F70732064696167002E1F
:100E80000044656C6574696F6E206661696C6564A9
:100E90002C2046696C653A200046696C65206465C3
:100EA0006C657465643A004E6F7420534420707210
:100EB000696E74696E67005072696E742073617632
:100EC0006564005344207072696E7420706175739C
:100ED0006564000A002F000A006673656E736F7206
:100EE0005F726573746F72655F7072696E745F6153
:100EF0006E645F636F6E74696E75650A002F2F20D4
:100F0000616374696F6E3A63616E63656C0043522E
:100F10004153485F43414E43454C0043524153487F
:100F20005F5245434F5645520043524153485F522A
:100F300045434F564552002228322900540044753B
:100F4000706C696361746520542D636F64652069FA
:100F5000676E6F7265642E0A004475706C69636118
:100F6000746520542D636F64652069676E6F7265C8
:100F7000642E0A00496E76616C6964205420636FA8
:100F800064652E00556E6B6E6F776E204D20636F1B
:100F900064653A202573200A006E6F2076616C69C3
:100FA0006420636F6D6D616E64002C20002C200046
:100FB0002C20006E2F61002C20002C20002C200003
:100FC0006E2F61002F00503A005761697420666FE0
:100FD000722050494E4441207461726765742074D8
:100FE000656D70657261747572653A004C414E476B
:100FF0002053454C20464F52434544002228312976
:101000000030303030303030302D303030302D3016
:101010003030302D303030302D30303030303030D6
:1010200030303030300020555549443A00310020EE
:1010300045585452554445525F434F554E543A001B
:10104000426F6E64746563682D5045204D4B337359
:1010500000204D414348494E455F545950453A00A0
:10106000312E3000206261736564206F6E204D6107
:10107000726C696E204649524D574152455F555238
:101080004C3A68747470733A2F2F6769746875628C
:101090002E636F6D2F707275736133642F5072758C
:1010A00073612D4669726D776172652050524F549D
:1010B0004F434F4C5F56455253494F4E3A004649B5
:1010C000524D574152455F4E414D453A50727573EE
:1010D000612D4669726D7761726520004D31313343
:1010E00020530020423A0020453A00543A00204163
:1010F0003A0020503A002042403A0020403A002076
:101100002F003A00205400202F0020423A00202FC8
:10111000006F6B20543A002569206D696E2C2025E4
:10112000692073656300496E76616C6964204D20A7
:10113000636F64653A202573200A00556E6B6E6FED
:10114000776E204720636F64653A202573200A007C
:101150004D65736820626564206C6576656C696EA8
:1011600067206E6F74206163746976652E000A00D3
:101170002020000A4D6561737572656420706F6987
:101180006E74733A000A5A2073656172636820684E
:1011900065696768743A20002C004E756D20582CE4
:1011A000593A2000206D6963726F6E730045786351
:1011B00065737369766520626564206C6576656C1D
:1011C000696E6720636F7272656374696F6E3A202F
:1011D00000426564206C6576656C696E67206661A7
:1011E000696C65642E2053656E736F72207472692A
:1011F00067676572656420746F6F20686967682E21
:101200000A00426564206C6576656C696E672066CD
:1012100061696C65642E2053656E736F722064691A
:1012200073636F6E6E6563746564206F72206361B3
:10123000626C652062726F6B656E2E0A00473238F1
:101240002057300050494E44412070726F62652033
:1012500063616C6962726174696F6E20737461722C
:101260007400473238205730004D32340053455413
:101270005F43484F505F005345545F535445505FA0
:10128000005345545F574156455F00544D435F003E
:1012900043524153485F005072657373206B6E6F09
:1012A0006220746F2070726568656174206E6F7A59
:1012B0007A6C6520616E6420636F6E74696E75650B
:1012C0002E00506C656173652070726573732074B5
:1012D0006865206B6E6F6220746F20756E6C6F6135
:1012E000642066696C616D656E740052656D6F7621
:1012F00065206F6C642066696C616D656E74206139
:101300006E6420707265737320746865206B6E6FF5
:101310006220746F207374617274206C6F616469F1
:101320006E67206E65772066696C616D656E742EE0
:1013300000616E6420707265737320746865206B41
:101340006E6F6200496E736572742066696C616DC0
:10135000656E7400436F6C6F72206E6F7420636FE4
:1013600072726563740046696C616D656E74206E9F
:101370006F74206C6F61646564004368616E6765BB
:101380006420636F72726563746C793F004C6F61A7
:1013900064696E6720636F6C6F72004368616E678B
:1013A0006520737563636573732100506C656173A9
:1013B00065206F70656E2069646C657220616E6473
:1013C0002072656D6F76652066696C616D656E74FF
:1013D000206D616E75616C6C792E005761732066AB
:1013E000696C616D656E7420756E6C6F61642073DD
:1013F00075636365737366756C3F00506C656173EC
:101400006520757067726164652E004E6577206691
:1014100069726D776172652076657273696F6E208F
:10142000617661696C61626C653A005761697469E3
:101430006E6720666F722050494E44412070726F73
:10144000626520636F6F6C696E67004372617368D9
:101450002064657465637465642E20526573756DD0
:1014600065207072696E743F004372617368206416
:10147000657465637465642E00457874727564657F
:10148000720043686F6F7365206578747275646568
:10149000723A0043686F6F73652066696C616D65B1
:1014A0006E743A004E6F206D6F76652E005761693D
:1014B0007420666F7220757365722E2E2E00536F26
:1014C0006D652070726F626C656D20656E636F75FF
:1014D0006E74657265642C205A2D6C6576656C6936
:1014E0006E6720656E666F72636564202E2E2E0017
:1014F000537461626C6520616D6269656E742074FD
:10150000656D70657261747572652032312D323689
:1015100043206973206E656564656420612072698B
:10152000676964207374616E6420697320726571E9
:1015300075697265642E00506C6561736520727503
:101540006E2058595A2063616C6962726174696FC8
:101550006E2066697273742E0073746172740A006F
:101560006164635F696E69740A0000202D20496E12
:1015700076616C6964206578747275646572206E3A
:10158000756D6265722021001B5B324A1B5B313B2B
:1015900031484F726967696E616C20507275736172
:1015A0002069331B5B323B334850727573612052A4
:1015B0006573656172636800466163746F72792058
:1015C00052455345540044495341424C45440A0056
:1015D000454E41424C4544004653656E736F722040
:1015E00025530A004A756C203132203230313900DF
:1015F000436F6D70696C65643A2000286E6F6E658C
:101600002C2064656661756C7420636F6E66696713
:1016100029004A756C20313220323031392030397E
:101620003A34313A30340020332E372E322D3233D3
:1016300036330A002055706C6F616420696E20702B
:10164000726F677265737300205A3A0020593A002E
:1016500020583A0043524153485F4445544543544F
:10166000454458590043524153485F44455445430B
:10167000544544590043524153485F4445544543FF
:1016800054454458004D3239001B5B324A1B5B30D5
:101690003B304845787465726E616C205350492028
:1016A000666C6173681B5B313B304857323558328A
:1016B00030434C206973206E6F74207265732D1B4C
:1016C0005B323B3048706F6E64696E672E204C61F0
:1016D0006E67756167651B5B333B30487377697470
:1016E000636820756E617661696C61626C652E005D
:1016F000437261736844657465637420444953415F
:10170000424C454400437261736844657465637478
:1017100020454E41424C4544210057323558323025
:10172000434C206E6F7420726573706F6E64696EC7
:10173000672E0A002020506C616E6E6572427566DD
:1017400066657242797465733A2000204672656559
:10175000204D656D6F72793A2000207C20417574B0
:10176000686F723A2000204C617374205570646178
:101770007465643A200020536F6674776172652047
:10178000526573657400205761746368646F6720E5
:101790005265736574002042726F776E206F7574A6
:1017A000205265736574002045787465726E616CB3
:1017B00020526573657400506F77657255700065CF
:1017C00072726F722077726974696E6720746F200D
:1017D00066696C6500656E6473746F707320686908
:1017E000743A2000446F6E6520736176696E6720DD
:1017F00066696C652E006F6B004D4B335320666934
:10180000726D7761726520646574656374656420C8
:101810006F6E204D4B33207072696E74657200429A
:101820006F6E64746563682D5045204D4B33732093
:101830004F4B2E00426C61636B6F7574206F636356
:1018400075727265642E205265636F7665722070C2
:1018500072696E743F0053656C66746573742077AB
:10186000696C6C2062652072756E20746F206361F4
:101870006C6962726174652061636375726174651D
:101880002073656E736F726C657373207265686F19
:101890006D696E672E0054686572652069732073E8
:1018A00074696C6C2061206E65656420746F206DB6
:1018B000616B65205A2063616C6962726174696F43
:1018C0006E2E20506C6561736520666F6C6C6F774F
:1018D00020746865206D616E75616C2C2063686191
:1018E00070746572204669727374207374657073C6
:1018F0002C2073656374696F6E2043616C6962723A
:101900006174696F6E20666C6F772E005072696E1D
:1019100074657220686173206E6F74206265656EF5
:101920002063616C69627261746564207965742EEC
:1019300020506C6561736520666F6C6C6F772074E6
:101940006865206D616E75616C2C206368617074D0
:1019500065722046697273742073746570732C20ED
:1019600073656374696F6E2043616C696272617440
:10197000696F6E20666C6F772E004F6C6420736504
:101980007474696E677320666F756E642E2044658B
:101990006661756C74205049442C204573746570E1
:1019A00073206574632E2077696C6C2062652073E8
:1019B00065742E005761726E696E673A20626F74AB
:1019C00068207072696E7465722074797065206128
:1019D0006E64206D6F74686572626F6172642074EA
:1019E000797065206368616E6765642E0057617267
:1019F0006E696E673A207072696E746572207479D0
:101A00007065206368616E6765642E005761726E51
:101A1000696E673A206D6F74686572626F61726497
:101A20002074797065206368616E6765642E005864
:101A3000595A2063616C6962726174696F6E2061CA
:101A40006C6C2072696768742E20536B6577207701
:101A5000696C6C20626520636F7272656374656483
:101A6000206175746F6D61746963616C6C792E00AF
:101A700058595A2063616C6962726174696F6E2093
:101A8000616C6C2072696768742E20582F59206130
:101A90007865732061726520736C696768746C790E
:101AA00020736B657765642E20476F6F64206A6FC3
:101AB00062210058595A2063616C696272617469CD
:101AC0006F6E206F6B2E20582F5920617865732020
:101AD0006172652070657270656E646963756C61B2
:101AE000722E20436F6E67726174756C6174696FDA
:101AF0006E73210058595A2063616C696272617477
:101B0000696F6E206661696C65642E205269676832
:101B1000742066726F6E742063616C6962726174A6
:101B2000696F6E20706F696E74206E6F74207265BD
:101B300061636861626C652E0058595A2063616C5C
:101B40006962726174696F6E206661696C65642E8A
:101B50002046726F6E742063616C69627261746991
:101B60006F6E20706F696E7473206E6F7420726573
:101B700061636861626C652E0058595A2063616C1C
:101B80006962726174696F6E206661696C65642E4A
:101B900020506C6561736520636F6E73756C742083
:101BA000746865206D616E75616C2E0058595A20FD
:101BB00063616C6962726174696F6E20636F6D70CE
:101BC000726F6D697365642E205269676874206650
:101BD000726F6E742063616C6962726174696F6E9A
:101BE00020706F696E74206E6F7420726561636817
:101BF00061626C652E0058595A2063616C6962728B
:101C00006174696F6E20636F6D70726F6D6973655B
:101C1000642E2046726F6E742063616C696272611B
:101C200074696F6E20706F696E7473206E6F7420AC
:101C3000726561636861626C652E0058595A206351
:101C4000616C6962726174696F6E206661696C654E
:101C5000642E204265642063616C696272617469FC
:101C60006F6E20706F696E7420776173206E6F7471
:101C700020666F756E642E00506C65617365207010
:101C80006C61636520737465656C20736865657449
:101C9000206F6E20686561746265642E004469730C
:101CA00074616E6365206265747765656E20746922
:101CB00070206F6620746865206E6F7A7A6C65207C
:101CC000616E642074686520626564207375726655
:101CD00061636520686173206E6F74206265656E54
:101CE00020736574207965742E20506C656173656E
:101CF00020666F6C6C6F7720746865206D616E75FF
:101D0000616C2C206368617074657220466972731F
:101D1000742073746570732C2073656374696F6EBF
:101D2000204669727374206C617965722063616CFE
:101D30006962726174696F6E2E00506C6163652018
:101D400061207368656574206F66207061706572CC
:101D500020756E64657220746865206E6F7A7A6C87
:101D60006520647572696E67207468652063616CB4
:101D70006962726174696F6E206F66206669727342
:101D800074203420706F696E74732E20496620743D
:101D90006865206E6F7A7A6C65206361746368652C
:101DA00073207468652070617065722C20706F7785
:101DB0006572206F666620746865207072696E7443
:101DC000657220696D6D6564696174656C792E005A
:101DD000506C656173652072656D6F7665207374F4
:101DE00065656C2073686565742066726F6D206828
:101DF0006561746265642E00497320737465656C57
:101E0000207368656574206F6E2068656174626513
:101E1000643F00206F662034005365617263686917
:101E20006E67206265642063616C696272617469C7
:101E30006F6E20706F696E7400206F662039004DE0
:101E40006561737572696E67207265666572656E2D
:101E5000636520686569676874206F662063616CDC
:101E60006962726174696F6E20706F696E74005080
:101E70006C6561736520636C65616E2074686520B4
:101E80006E6F7A7A6C6520666F722063616C69622E
:101E9000726174696F6E2E20436C69636B20776882
:101EA000656E20646F6E652E004175746F20686FDB
:101EB0006D650078797A63616C5F6D6561737375C8
:101EC00072655F656E7465720A0078797A63616C19
:101ED0005F73706972616C382063783D256420639C
:101EE000793D2564207A303D256420647A3D25645F
:101EF000207261646975733D25642061643D2564C9
:101F00000A0078797A63616C5F7365617263685AFD
:101F1000206E6F207369676E616C0A20783D256CB6
:101F20006420793D256C64207A3D256C640A00208C
:101F30004F4E2D5349474E414C20617420783D252A
:101F40006420793D2564207A3D25642061643D2527
:101F5000640A0078797A63616C5F736561726368A3
:101F60005A20783D256C6420793D256C64207A3DAB
:101F7000256C640A000A00253032780078797A638B
:101F8000616C5F7363616E5F706978656C735F33FA
:101F9000327833322063783D25642063793D2564AF
:101FA000206D696E5F7A3D2564206D61785F7A3DB2
:101FB00025640A00202532642025640A000A0025D1
:101FC00030327800206D696E3D2564206D61783D6A
:101FD0002564206469663D25640A006D61785F634D
:101FE0003D253264206D61785F6C3D25640A006D8B
:101FF00061785F633D2564206D61785F723D256483
:10200000206D61785F6D617463683D25640A00200E
:10201000783D256420793D2564207A3D25640A00B9
:10202000207061747465726E20666F756E642061D5
:10203000742025642025640A000000F000F801FCEB
:1020400003FE07FE07FE07FE07FC03F801F0000091
:102050000073697A656F6628746F74616C293D2519
:10206000640A0073697A656F6628626C6F636B5FE0
:10207000627566666572293D25640A0078797A631F
:10208000616C5F6D656173737572655F6C656176B8
:10209000650A00706F696E743D256420783D256483
:1020A00020793D2564207A3D25640A0058025802B3
:1020B000584D584DB004F055F055B00478797A6316
:1020C000616C5F66696E645F6265645F696E6475AA
:1020D0006374696F6E5F73656E736F725F706F6943
:1020E0006E745F787920783D256C6420793D256C8D
:1020F00064207A3D256C640A00203C200057415240
:102100004E494E473A2046726F6E7420706F696E6A
:1021100074206E6F7420726561636861626C652EF5
:10212000205920636F6F7264696E6174653A0000B4
:10213000000040410000C04000005C430000C0407F
:1021400000005C430000464300004041000046435D
:10215000497465726174696F6E3A200043616C69FD
:1021600062726174696F6E206661696C65642120BA
:10217000436865636B2074686520617865732061CE
:102180006E642072756E20616761696E2E00555312
:10219000415254322072782046756C6C2121210AFC
:1021A0000053657474696E67732053746F7265644D
:1021B0000053746F7265642073657474696E67731D
:1021C0002072657472696576656400486172646343
:1021D0006F6465642044656661756C742053657432
:1021E00074696E6773204C6F6164656400563200D9
:1021F000000000C8420000C8420000C84300804FF1
:10220000440000484300004843000040410000F003
:1022100042E8030000E8030000C800000088130043
:102220000000409C4400409C44000000000000006E
:1022300000204E00000000204100002041CDCCCC09
:102240003E000020400000000000000000000000F0
:1022500000CDCCCC3E3D0A8141FF08433EB099AB56
:10226000438F42FC42E65A343F4C62B045000000C6
:102270000000404000003442000000000000000068
:1022800000000041000000E03F0000C8420000C81C
:1022900042000040410000F042C0030000C00300C3
:1022A00000C80000008813000010101020436F6E5B
:1022B00074696E7565207769746820616E6F7468E3
:1022C000657220626F7764656E3F002500202020D4
:1022D000202020002020202020200045524153496A
:1022E0004E4720616C6C20646174610046616374C8
:1022F0006F72792052455345540000007F4300809F
:10230000544300004C4300000000000080C09A9934
:10231000193E00000000000080C09A99193E4578DF
:1023200072656D65207370616E206F6620746865DC
:10233000205A2076616C75657321006F6B0A0073FB
:10234000746172740A004D4D5532206669726D7762
:102350006172652076657273696F6E20696E766151
:102360006C69642E205265717569726564207665AA
:102370007273696F6E3A206275696C64206E756D58
:10238000626572202564206F7220686967686572D3
:102390002E006673656E736F725F73746F705F612A
:1023A0006E645F736176655F7072696E740A004D6A
:1023B0004D55203D3E20276F6B270A004D4D55207F
:1023C0003D3E20276F6B270A002564004D4D5520A8
:1023D0003D3E20276F6B272C20726573756D65203D
:1023E0007072696E740A004D4D5520726574727971
:1023F00020617474656D7074206E722E2025640ADD
:10240000004D4D55203D3E20276F6B270A00410AA5
:10241000004D4D55203C3D202741270A004D3630C8
:1024200030004D363030204155544F0050525553F6
:1024300041206673656E736F725F7265636F766558
:1024400072002568687500410A004D4D55203C3DDD
:10245000202741270A0050300A004D25640A004D0C
:102460004D55203C3D20274D2564270A0057300A52
:10247000004D4D55203C3D20275730270A0053334F
:102480000A004D4D55203C3D20275333270A00526A
:10249000300A004D4D55203C3D20275230270A0080
:1024A0004B25640A004D4D55203C3D20274B2564AB
:1024B000270A004525640A004D4D55203C3D202744
:1024C000452564270A0055300A004D4D55203C3DF6
:1024D00020275530270A0043300A004D4D55203C37
:1024E0003D20274330270A004C25640A004D4D55F6
:1024F000203C3D20274C2564270A005425640A000F
:102500004D4D55203C3D2027542564270A004D4D54
:1025100055202D20454E41424C45440025686875A4
:102520000050300A004D310A004D4D55203C3D20F1
:10253000274D31270050300A004D4D5520766572E9
:1025400073696F6E2076616C6964004D4D55203D56
:102550003E202725646F6B270A0025750053320A39
:10256000004D4D55203C3D2027533227004D4D5501
:10257000203D3E202725646F6B270A002575004DFE
:102580004D55206E6F7420726573706F6E64696E46
:1025900067202D2044495341424C45440053310AA1
:1025A000004D4D55203C3D2027533127004D4D55C2
:1025B000203D3E2027737461727427006572726F2C
:1025C000723A20756E6B6E6F776E206D6F76650A4E
:1025D000006E6F206D6F76650A00542D636F646521
:1025E0000A00756E6C6F61640A006C6F61640A00AA
:1025F0006D6D755F6765745F726573706F6E73651F
:10260000202D20626567696E206D6F76653A200027
:102610006D6D755F6765745F726573706F6E7365FE
:1026200028292072657475726E696E673A20256478
:102630000A00556E6C6F6164696E672066696E6929
:102640007368656420320A00556E6C6F61642032D5
:102650000A00556E6C6F6164696E672066696E6909
:102660007368656420310A00556E6C6F61642031B7
:102670000A004D4D55207374617274732072657336
:10268000706F6E64696E670A004D4D55206E6F74F1
:1026900020726573706F6E64696E670A0046696CBC
:1026A000616D656E74206F7574206F662072616E47
:1026B0006765202564200A000000803F555585414C
:1026C0000000803F0000C841000000405555054211
:1026D0000000C03F000048420000204055558542A0
:1026E000000070C1ABAAA642000060C10000A0417A
:1026F0000000C0C00000204100002041ABAA3A41C8
:10270000000020C15555D540000048C2555505422E
:10271000426564206C6576656C696E6720666169E8
:102720006C65642E2053656E736F72206469646EED
:102730007420747269676765722E204465627269DD
:1027400073206F6E206E6F7A7A6C653F20576169D7
:1027500074696E6720666F722072657365742E00EF
:10276000506C65617365207570646174652066697D
:10277000726D7761726520696E20796F7572204D78
:102780004D55322E2057616974696E6720666F72ED
:102790002072657365742E004D4D55204F4B2E20D1
:1027A000526573756D696E672E2E2E004D4D552046
:1027B0004F4B2E20526573756D696E6720706F7375
:1027C0006974696F6E2E2E2E004D4D55204F4B2E85
:1027D00020526573756D696E672074656D706572E2
:1027E00061747572652E2E2E0046697820746865B6
:1027F00020697373756520616E64207468656E204E
:10280000707265737320627574746F6E206F6E20C2
:102810004D4D5520756E69742E005072657373208E
:10282000746865206B6E6F6220746F2072657375BB
:102830006D65206E6F7A7A6C652074656D70657257
:1028400061747572652E004D4D55206E656564731B
:10285000207573657220617474656E74696F6E2E75
:102860000025632533642F25642563004D373031FF
:10287000204534004D373031204533004D3730315D
:10288000204532004D373031204531004D37303151
:102890002045300046696C616D656E74206E722053
:1028A0006F7574206F662072616E676521004164E8
:1028B000646974696F6E616C206C6F61642061740F
:1028C00074656D7074206E722E2025640A00773254
:1028D00035783230636C5F63666D0A007732357825
:1028E0003230636C5F656E7465720A00506C6561AE
:1028F00073652072656D6F76652066696C616D65C4
:102900006E7420616E64207468656E2070726573E9
:102910007320746865206B6E6F622E00456A656374
:1029200074696E672066696C616D656E74004D4DEB
:1029300055206C6F6164206661696C65642020209D
:1029400020200020746F6F206C6F6E672065787494
:10295000727573696F6E2070726576656E746564EA
:102960000020636F6C6420657874727573696F6E94
:102970002070726576656E74656400000E13151123
:102980000E00000004120912040000001C1F1111A7
:102990001F00000006191803130C00040E1F041C6E
:1029A000000000040A0A0A0A11110E001F15111571
:1029B0001F0000000103161C0800000000110A049B
:1029C000110A040C12120C000000002563252D31A1
:1029D000382E3138532563002563252D2E3136538B
:1029E00020002563252E3135533A257325336400A5
:1029F00020202020202020202020202020202020D7
:102A000020202020002563252D31332E31335325FE
:102A1000362E36730022206661696C65643A204266
:102A200075666665722066756C6C21002200222036
:102A30006661696C65643A204275666665722066F7
:102A4000756C6C2100456E717565696E6720746FD9
:102A5000207468652066726F6E743A20220022002E
:102A6000456E717565696E6720746F2074686520A6
:102A700066726F6E743A202200256920686F757245
:102A800073202569206D696E757465730054494D16
:102A9000454F55543A004D3131300046756C6C202D
:102AA00052582042756666657200656E717565697B
:102AB0006E67202200446F6E65207072696E7469C3
:102AC0006E672066696C65005072696E746572206D
:102AD00073746F707065642064756520746F206511
:102AE00072726F72732E2046697820746865206553
:102AF00072726F7220616E6420757365204D393972
:102B00003920746F20726573746172742E2028549A
:102B1000656D706572617475726520697320726588
:102B20007365742E20536574206974206166746522
:102B3000722072657374617274696E6729004E6FDA
:102B4000204C696E65204E756D62657220776974E0
:102B50006820636865636B73756D2C204C617374BA
:102B6000204C696E653A20004E6F20436865636BA8
:102B700073756D2077697468206C696E65206E7559
:102B80006D6265722C204C617374204C696E653ADD
:102B90002000636865636B73756D206D69736D618B
:102BA0007463682C204C617374204C696E653A2004
:102BB000004C696E65204E756D62657220697320E8
:102BC0006E6F74204C617374204C696E65204E7575
:102BD0006D6265722B312C204C617374204C696ED0
:102BE000653A200053544F505045442E20004D323A
:102BF00034004D323320257300052E2E00457874A5
:102C0000722066616E2073706565643A20256420C9
:102C10000A005072696E742066616E20737065657B
:102C2000643A202564200A005465737420323A0AFD
:102C300000457874722066616E2073706565643A31
:102C4000202564200A005072696E742066616E202F
:102C500073706565643A202564200A0054657374B6
:102C600020313A0A006C63645F73656C6663686563
:102C7000636B5F617869732025642C2025640A00EA
:102C80004D3834004731205A31352046313030300C
:102C90000047323820570046696C6520696E636FC3
:102CA0006D706C6574652E20436F6E74696E75650A
:102CB00020616E797761793F004261636B004D61FD
:102CC000696E0057616974696E6720666F72206E65
:102CD0006F7A7A6C6520616E642062656420636F30
:102CE0006F6C696E670053656C6620746573742041
:102CF0004F4B0053656C6620746573742073746168
:102D0000727420200020573A0020453A00543A00BF
:102D10005A206C6976652061646A757374206F75DA
:102D200074206F662072616E67652E20536574741F
:102D3000696E6720746F20302E20436C69636B20AE
:102D4000746F20636F6E74696E75652E005A206C07
:102D50006976652061646A757374206F7574206F7D
:102D6000662072616E67652E2053657474696E67A4
:102D700020746F20300020423A0020453A00543A37
:102D800000494E5434007265636F7665725F6D6101
:102D90006368696E655F73746174655F61667465AD
:102DA000725F706F7765725F70616E69632C206906
:102DB0006E697469616C20007265636F7665725F1D
:102DC0006D616368696E655F73746174655F616688
:102DD0007465725F706F7765725F70616E69632C86
:102DE00020696E697469616C2000473932204500A2
:102DF00050525553412075766C6F00473420533044
:102E0000004D32362053256C75004D31303620533D
:102E1000004D3832004731204625640047312045B7
:102E2000322A64656661756C745F72657472616381
:102E300074696F6E2046343830004731205A0020C4
:102E400046323030300020590047312058004D388C
:102E50003300506F736974696F6E2072656164200E
:102E600066726F6D20656570726F6D3A004D32331A
:102E7000202573002E67636F004665656472617478
:102E8000653A00473120452D64656661756C745F55
:102E900072657472616374696F6E204634383000F5
:102EA00047312045352046313230004D3833004D12
:102EB00031393020532564004D3130392053256499
:102EC0000047323820582059004731205A323520E7
:102ED00046383030004731205A252D302E336620B9
:102EE00046252D302E33660047312045252D302EC6
:102EF0003366204632373030004D3833006F6B0A6E
:102F00000055564C4F202D20656E642025640A0024
:102F10007374707325640A00776F726C6420636F3A
:102F20006F7264696E617465733A2028252E33666A
:102F30002C20252E33662C20252E3366290A00707E
:102F40006879736963616C20636F6F7264696E6125
:102F50007465733A2028252E33662C20252E33667F
:102F60002C20252E3366290A0043757272656E7413
:102F700020706F73205A5F415849533A252E3366AB
:102F80000A43757272656E7420706F7320455F41DD
:102F90005849533A252E33660A00416674657220FB
:102FA00077616974696E6720666F722074656D70F1
:102FB0003A0A43757272656E7420706F7320585FA1
:102FC000415849533A252E33660A43757272656E2D
:102FD0007420706F7320595F415849533A252E333E
:102FE000660A005265636F766572696E672070725B
:102FF000696E742020202000544D432044524956CD
:103000004552204F56455254454D500025632533B7
:10301000642F25642563005A25362E326620005A17
:103020002020202D2D2D200025632533642525000B
:103030002D2D2D0025336868640025335325337307
:103040002525005553420020202000205344002015
:1030500025753E257500203F3E25750020462575C7
:103060000020463F0020463020200025632D2D3AC9
:103070002D2D2020002563253375682025632563C9
:10308000002563253032753A253032752563256376
:1030900000726573756C742076616C75653A2025D5
:1030A000640A0020693D25326420636E743D253238
:1030B000642076616C3D2532640A00636C7573741C
:1030C0006572733A0A0020693D2532642073746585
:1030D000703D2532640A00736F72746564207361F9
:1030E0006D706C65733A0A003A2000202020202081
:1030F00020202020202020202020202020200020F0
:103100003A200020202020202020202020202020C5
:1031100020202020202020002020202020202020CF
:1031200020202020200025730050494E4441204893
:10313000656174696E670054656D702E2063616C03
:103140002E202020202020202020200043616C6998
:1031500062726174696F6E20646F6E650043616CAA
:103160006962726174696E67205A00426564206406
:103170006F6E65004265642048656174696E670022
:1031800048656174696E6720646F6E652E004865DE
:103190006174696E670043757272656E7400557371
:1031A000656420647572696E67207072696E740060
:1031B0005049442063616C2E2066696E69736865AE
:1031C00064005049442063616C2E20202020202080
:1031D000202020202000506C656173652077616994
:1031E00074004D313137204669727374206C6179F7
:1031F00065722063616C2E005072696E742070617C
:103200007573656400496E76616C69642050494449
:103210002063616C2E20726573756C74732E204E62
:103220006F742073746F72656420746F204545500D
:10323000524F4D2E004D353030004731205A313538
:10324000204631353030004739310047312058357C
:103250003020593139302045302046373030300069
:10326000473930004D373032004D3730322043007F
:103270004D3730322055004D373032004D37303227
:103280002043004731205A31352046313530300057
:1032900047393100473120583530205931393020F5
:1032A0004530204637303030004D38330047393014
:1032B000004D3834004D313034205330004D383417
:1032C000004D3730322043004731205831302059EB
:1032D000313830204634303030004731205A3130D8
:1032E0002046313330302E303030004D31343020F4
:1032F0005330004D31303420533000473120452DBC
:10330000302E30373530302046323130302E3030AC
:10331000303030004D3130370047312058353020C3
:103320005935352045332E36323737330047312073
:1033300058323030205935352045302E3439333825
:103340003600473120583230302059373520453348
:103350002E36323737330047312058353020593731
:10336000352045302E343933383600473120583532
:1033700030205939352045332E3632373733004720
:10338000312058323030205939352045302E3439EB
:1033900033383600473120583230302059313135FA
:1033A0002045332E363237373300473120583530F9
:1033B00020593131352045302E34393338360047E5
:1033C000312058353020593133352045332E3632AF
:1033D00037373300473120583230302059313335B8
:1033E0002045302E363631373400473120583230C0
:1033F0003020593135352045322E363237373300BB
:103400004731205831303020593135352045320090
:1034100047312058373520593135352045322E3542
:10342000004731204631303830004731205A302EA5
:103430003135302046373230302E30303000473191
:103440002058353020593135350047312046343049
:103450003030004D3230342053313030300047317D
:10346000205A352046373230302E30303000473148
:1034700020452D312E35303030302046323130303D
:103480002E3030303030004D38330047393000476F
:103490003231004739322045302E30004731205834
:1034A0003130302E30204531322E3520463130300B
:1034B000302E30004731205836302E302045392EFE
:1034C000302046313030302E300047312058352EF4
:1034D000302045342E302046313030302E300047F9
:1034E00031205A302E32302046313030302E3000EC
:1034F0004731205835352E3020453235204631347D
:1035000030302E3000473120592D322E30204631B8
:103510003030302E3000473120583234302E3020B9
:103520004532352E30202046323230302E300047A2
:1035300039322045302E30004731205A302E33208A
:1035400046313030302E30004731205835352E305E
:103550002045382E302046323030302E3000473172
:103560002058352E30204533322E30204631383029
:10357000302E30004731205835352E30204533323B
:103580002E302046313037332E30004731205A302C
:103590002E342046313030302E3000473120592D26
:1035A000332E302046313030302E30004D3833004D
:1035B0004739322045302E3000473238004D313007
:1035C000392053323135004D3139302053363000F7
:1035D0004D31343020533630004D313034205332A9
:1035E0003135004D313037004D373032004D3730F6
:1035F00031004D373032004D37303100464C4558A0
:10360000202D20203234302F353000505020202003
:103610002D20203235342F3130300048495053208E
:103620002D20203232302F313030004142532020C3
:103630002D20203235352F31303000504554202098
:103640002D20203233302F383500504C4120202D92
:1036500020203231352F363000252D31322E3132B7
:1036600053252B382E316600457874727564657267
:103670003A006D6D000059005800583A00593A0060
:103680005A3A002563252D31332E313353252B35FE
:103690002E336600746F20756E6C6F6164206669EE
:1036A0006C616D656E7400746F206C6F6164206670
:1036B000696C616D656E7400507265737320746817
:1036C00065206B6E6F62003E43616E63656C0050F7
:1036D000726568656174696E6720746F20637574C4
:1036E0000050726568656174696E6720746F20654B
:1036F0006A6563740050726568656174696E6720FD
:10370000746F20756E6C6F616400507265686561DE
:1037100074696E6720746F206C6F6164005072650D
:103720006865617420746865206E6F7A7A6C6521B3
:10373000004552524F523A0046696C616D656E7495
:1037400020657874727564696E67202620776974C5
:103750006820636F727265637420636F6C6F723F71
:10376000004175746F6C6F6164696E672066696C87
:10377000616D656E74206973206163746976652C70
:10378000206A757374207072657373207468652085
:103790006B6E6F6220616E6420696E736572742057
:1037A00066696C616D656E742E2E2E00546F7461A7
:1037B0006C207072696E742074696D6500546F744A
:1037C000616C2066696C616D656E74005072696E23
:1037D000742074696D650046696C616D656E742056
:1037E00075736564005269676874004C656674009F
:1037F000592064697374616E63652066726F6D2011
:103800006D696E0053657665726520736B65770030
:10381000536C6967687420736B6577004D656173DD
:103820007572656420736B6577005B303B305D209B
:10383000706F696E74206F66667365740041646AA8
:10384000757374696E67205A3A0052657365740027
:10385000526561722073696465205B756D5D004619
:10386000726F6E7420736964655B756D5D0052697B
:1038700067687420736964655B756D5D004C65668F
:10388000742073696465205B756D5D0053657420F9
:1038900074656D70657261747572653A001B5B3298
:1038A0004A2553203A1B5B313B394825382E326676
:1038B000206D0A2553203A0A25376C6464203A2586
:1038C0003268686468203A253032686864206D0088
:1038D0001B5B324A25533A1B5B313B364825382E59
:1038E00032666D200A2553203A1B5B333B3848254E
:1038F00032646820253032646D20253032647300D4
:1039000025362E32666D6D004E2F41001B5B303B1D
:10391000304825533A0A25530A25533A0A25533A83
:10392000001B5B303B3135484E2F41001B5B303B69
:1039300031354825342E326601001B5B303B304860
:1039400025533A0A25530A25533A202025352E328D
:1039500066010A25533A202025352E32660100469D
:10396000616C73652074726967676572696E670060
:10397000537761707065640046726F6E742F6C656A
:1039800066742066616E73004178697300417869DE
:1039900073206C656E677468004C6F6F7365207080
:1039A000756C6C657900456E6473746F70206E6F12
:1039B000742068697400456E6473746F70004D6F95
:1039C000746F7200456E6473746F70730057697220
:1039D000696E67206572726F7200426564202F20E5
:1039E000486561746572004E6F7420636F6E6E651A
:1039F00063746564004865617465722F546865720C
:103A00006D6973746F7200506C65617365206368D3
:103A100065636B203A0053656C667465737420654A
:103A200072726F7220210046696C616D656E742040
:103A300073656E736F72005072696E742066616E8A
:103A40003A0045787472756465722066616E3A005A
:103A500043616C6962726174696E6720686F6D653D
:103A60000053656C6674657374206661696C656487
:103A7000202000416C6C20636F727265637420209B
:103A80002020202000436865636B696E67207365A2
:103A90006E736F72732000436865636B696E672095
:103AA000686F74656E64202000436865636B696E9F
:103AB0006720626564202020202000436865636BD6
:103AC000696E67205A206178697320200043686519
:103AD000636B696E67205920617869732020004309
:103AE0006865636B696E6720582061786973202070
:103AF00000436865636B696E6720656E6473746FFD
:103B00007073004572726F72202D20737461746936
:103B100063206D656D6F72792068617320626565E1
:103B20006E206F7665727772697474656E0043619A
:103B300072642072656D6F766564002D2D2D2D2DBC
:103B40002D2D2D2D2D2D2D2D2D2D2D2D2D2D2D00D2
:103B50000000000000110A045052555341334446FE
:103B600057002079303D25640A002078303D2564D7
:103B70000A004F4B0A004552524F522061643D25C6
:103B8000640A002020207A303D25640A00207A3023
:103B90003D25640A002079303D25640A00207830F4
:103BA0003D25640A0078797A63616C5F66696E64AA
:103BB0005F706F696E745F63656E746572320A0060
:103BC00000002100240027002A002D0030003300CF
:103BD00001010000040107010A0100002000230088
:103BE000260029002C002F003200000100000301F4
:103BF0000601090100000A0B02090C0D0E0807035B
:103C000004010000000000000000000000000000AF
:103C100000000000000000000000000000000000A4
:103C20001211100000000000000000000000000061
:103C30000000000000000000000000000000000084
:103C40000000000000000000000024F4D43050C345
:103C50008E20C2A24017828B7011127A910D816C56
:103C6000D90AA861E108C7586607615143061E4B8F
:103C70005D05C145A7041A411104093D9803713936
:103C800031034036DB0265339102D4305402802E7A
:103C90001D02632CEE01752AC501B028A001102772
:103CA00081018F2564012B244B01E0223401AC21DA
:103CB0001F018D200D01801FFC00841EED00971D4B
:103CC000DF00B81CD200E61BC600201BBC00641A33
:103CD000B200B219A8000A19A0006A189900D117F9
:103CE000910040178B00B516840031167E00B31585
:103CF00079003A157300C7146F0058146A00EE1368
:103D000066008813630025135E00C7125B006C1207
:103D1000570015125400C111510070114F002111AC
:103D20004B00D61049008D10470046104400021089
:103D30004200C00F4000800F3E00420F3C00060FC3
:103D40003B00CB0E3800930E37005C0E3500270E7B
:103D50003400F30D3200C10D3100900D3000600DC4
:103D60002E00320D2D00050D2C00D90C2B00AE0CB1
:103D70002900850C29005C0C2700350C27000E0C4F
:103D80002600E80B2400C40B2400A00B23007D0BAD
:103D900023005A0B2100390B2100180B2000F80AD0
:103DA0001F00D90A1E00BB0A1E009D0A1D00800AC2
:103DB0001D00630A1C00470A1B002C0A1B00110A85
:103DC0001A00F7091A00DD091900C4091900AB0926
:103DD0001900920917007B091800630917004C09A4
:103DE000160036091600200916000A091500F50804
:103DF0001500E0081400CC081400B8081400A4084A
:103E00001400900813007D0812006B081300580876
:103E1000120046081200340811002308110012088D
:103E2000110001081100F0071000E0071000D00792
:103E30001000C0071000B0070F00A1071000910785
:103E40000E0083070F0074070F0065070E00570769
:103E50000E0049070E003B070D002E070E0020073D
:103E60000D0013070D0006070D00F9060C00ED0606
:103E70000D00E0060C00D4060C00C8060C00BC06C1
:103E80000C00B0060C00A4060B0099060C008D0671
:103E90000B0082060B0077060B006C060B00610618
:103EA0000A0057060B004C060A0042060A003806B4
:103EB0000A002E060A0024060A001A060A00100646
:103EC000090007060A00FD050900F4050900EB05D5
:103ED0000900E2050900D9050900D0050900C70558
:103EE0000900BE050900B5050800AD050800A505D7
:103EF00009009C050800940508008C05080084054D
:103F000008007C050800740508006C0507006505BD
:103F100008005D050700560508004E050700470527
:103F200007004005080038050700310507002A058D
:103F30000700230507001C050600160507000F05EE
:103F400007000805060002050700FB040600F5044B
:103F50000700EE040600E8040600E2040700DB04A4
:103F60000600D5040600CF040600C9040600C304F9
:103F70000600BD040600B7040600B1040500AC0449
:103F80000600A6040600A00405009B040600950494
:103F90000500900406008A040500850405008004DD
:103FA00006007A04050075040500700405006B0422
:103FB000050066040500610405005C040500570463
:103FC0000500520405004D040500480405004304A3
:103FD00005003E0404003A040500350405003004E1
:103FE00004002C04050027040400230405001E041B
:103FF00004001A04040016040500110404000D0452
:104000000400090405000404040000040400FC0387
:104010000400F8030400F4030400F0030400EC03BC
:104020000400E8030400E4030400E0030400DC03EC
:104030000400D8030400D4030400D0030400CC031C
:104040000400C8030300C503030024F404D9201BA3
:10405000C40C5C0E9804C4095F0265077101F40585
:10406000F900FB04B30048048700C103690058034A
:10407000550003034500BE023A008402310053029A
:104080002A002902250004022000E4011C00C801C6
:104090001900AF0117009801140084011300710189
:1040A00010006101100051010E0043010D003601A6
:1040B0000B002B010B0020010B00150109000C0166
:1040C000090003010800FB000800F3000800EB00F2
:1040D0000700E4000600DE000600D8000600D2005B
:1040E0000600CC000500C7000500C2000500BD00A9
:1040F0000400B9000400B5000400B1000400AD00E4
:104100000400A9000400A5000300A20003009F0012
:1041100004009B0003009800030095000200930038
:104120000300900003008D0002008B000300880054
:1041300002008600020084000300810002007F006C
:1041400002007D0002007B0002007900020077007F
:10415000010076000200740002007200010071008C
:1041600002006F0002006D0001006C0002006A0096
:10417000010069000200670001006600010065009F
:1041800001006400020062000100610001006000A3
:1041900001005F0002005D0001005C0001005B00A7
:1041A00001005A00010059000100580001005700A9
:1041B00001005600010055000100540001005300A9
:1041C00000005300010052000100510001005000A6
:1041D00001004F0001004E0000004E0001004D00A4
:1041E00001004C0001004B0000004B0001004A00A0
:1041F000010049000100480000004800010047009C
:104200000100460000004600010045000000450096
:10421000010044000100430000004300010042008F
:104220000000420001004100000041000100400088
:1042300001003F0000003F0001003E0000003E0082
:1042400001003D0000003D0001003C0000003C007A
:1042500000003C0001003B0000003B0001003A0070
:1042600000003A0001003900000039000100380068
:10427000000038000000380001003700000037005F
:104280000100360000003600000036000100350055
:10429000000035000000350001003400000034004B
:1042A0000000340001003300000033000000330040
:1042B0000100320000003200000032000100310035
:1042C000000031000000310001003000000030002B
:1042D0000000300001002F0000002F0000002F0020
:1042E00000002F0001002E0000002E0000002E0014
:1042F00001002D0000002D0000002D0000002D0009
:1043000001002C0000002C0000002C0000002C00FC
:1043100001002B0000002B0000002B0000002B00F0
:1043200001002A0000002A0000002A0000002A00E4
:1043300001002900000029000000290000002900D8
:1043400000002900010028000000280000002800CB
:1043500000002800000028000100270000002700BE
:1043600000002700000027000000270001002600B1
:1043700000002600000026000000260000002600A5
:104380000100250000002500000025000000250098
:10439000000025000000250001002400000024008A
:1043A000000024000000240000002400010023007D
:1043B0000000230000002300000023000000230071
:1043C0000000230000002300010022000000220062
:1043D0000000220000002200000022000000220055
:1043E0000100210000002100000021000000210048
:1043F0000000210000002100000021000100200039
:10440000000020000000200000002000000020002C
:1044100000002000000020000000200001001F001C
:1044200000001F0000001F0000001F0000001F0010
:1044300000001F0000001F0001001E0000001E0001
:1044400000001E0000001E00000020003E003E0094
:1044500020003E003E0054656D7065726174757297
:10446000652063616C6962726174696F6E20666158
:10447000696C65642E20436F6E74696E7565207774
:10448000697468207072657373696E6720746865FB
:10449000206B6E6F622E0054656D7065726174756D
:1044A00072652063616C6962726174696F6E206409
:1044B0006F6E652E20436F6E74696E756520776927
:1044C0007468207072657373696E67207468652004
:1044D0006B6E6F622E0054656D70657261747572DB
:1044E000652063616C6962726174696F6E206661D8
:1044F000696C65640054656D706572617475726590
:104500002063616C6962726174696F6E20697320E7
:1045100066696E697368656420616E6420616374A6
:104520006976652E2054656D702E2063616C69621A
:10453000726174696F6E2063616E206265206469C8
:104540007361626C656420696E206D656E752053C1
:10455000657474696E67732D3E54656D702E2063AB
:10456000616C2E004E2F41002020300020203100B1
:1045700049523A0046494E44413A0050494E44415E
:104580003A0053656E736F722073746174650045F1
:1045900078747275646572004D6F7665205A004DAF
:1045A0006F76652059004D6F76652058001B5B3291
:1045B0004A437261736820646574656374696F6EE1
:1045C0002063616E1B5B313B3048626520747572FD
:1045D0006E6564206F6E206F6E6C7920696E1B5B58
:1045E000323B30484E6F726D616C206D6F646500B8
:1045F0001B5B324A5741524E494E473A1B5B313B97
:104600003048437261736820646574656374696FD0
:104610006E1B5B323B304864697361626C65642079
:10462000696E1B5B333B3048537465616C74682062
:104630006D6F6465004175746F6C6F6164696E675E
:104640002066696C616D656E7420617661696C616C
:10465000626C65206F6E6C79207768656E20666984
:104660006C616D656E742073656E736F7220697313
:10467000207475726E6564206F6E2E2E2E0045526A
:10468000524F523A2046696C616D656E74207365B5
:104690006E736F72206973206E6F74207265737011
:1046A0006F6E64696E672C20706C65617365206342
:1046B0006865636B20636F6E6E656374696F6E2EE1
:1046C000004D6F6465206368616E676520696E20C8
:1046D00070726F6772657373202E2E2E0053442004
:1046E00063617264206F6B006F70656E526F6F74E0
:1046F000206661696C656400766F6C756D652E6906
:104700006E6974206661696C656400534420696E4B
:104710006974206661696C0057726974696E6720FC
:10472000746F2066696C653A200046696C65207379
:10473000656C6563746564002053697A653A20008E
:1047400046696C65206F70656E65643A20006F7015
:10475000656E206661696C65642C2046696C653AFB
:1047600020001F1F1F1F1F1F1F1F2E002E004E6F18
:10477000772066726573682066696C653A20004E22
:104780006F7720646F696E672066696C653A2000F8
:104790002220706F73002220706172656E743A225D
:1047A00000535542524F5554494E452043414C4CBD
:1047B000207461726765743A22006563686F3A001D
:1047C000747279696E6720746F2063616C6C2073FA
:1047D00075622D67636F64652066696C6573207709
:1047E00069746820746F6F206D616E79206C6576D6
:1047F000656C732E204D4158206C6576656C206980
:10480000733A004572726F723A002E00536F7274E1
:10481000696E672066696C657300536F6D6520660D
:10482000696C65732077696C6C206E6F74206265AB
:1048300020736F727465642E204D61782E204E6F48
:104840002E206F662066696C657320696E203120AA
:10485000666F6C64657220666F7220736F72746924
:104860006E67206973203130302E00473830004D9C
:104870003435004D3435205A004737360057697AB1
:104880006172642073746174653A20256400446920
:104890007361626C65206661726D206D6F64650086
:1048A0004661726D206E756D626572004D38340020
:1048B0004D343400473238205700473939004469B5
:1048C0007361626C65206661726D206D6F64653F17
:1048D0000043616C69627261746500506C6561735C
:1048E00065206C6F616420504C412066696C616D7D
:1048F000656E742066697273742E00497320504C83
:10490000412066696C616D656E74206C6F616465D1
:10491000643F0043616E63656C0046696C616D6560
:104920006E740053656C65637420504C4120666959
:104930006C616D656E743A0052756E6E696E6720BB
:1049400057697A6172642077696C6C2064656C6564
:1049500074652063757272656E742063616C696240
:10496000726174696F6E20726573756C7473206107
:104970006E642073746172742066726F6D20746847
:104980006520626567696E6E696E672E20436F6E83
:1049900074696E75653F0050726568656174696E13
:1049A00067206E6F7A7A6C652E20506C6561736536
:1049B00020776169742E00456A65637400556E6CDA
:1049C0006F61640055736520756E6C6F616420744F
:1049D0006F2072656D6F76652066696C616D656EBE
:1049E0007420312069662069742070726F7472754A
:1049F000646573206F757473696465206F662074D5
:104A000068652072656172204D4D55207475626530
:104A10002E2055736520656A656374206966206978
:104A2000742069732068696464656E20696E2074FF
:104A30007562652E004C6F6164696E672066696CF3
:104A4000616D656E7400506C6561736520696E738D
:104A500065727420504C412066696C616D656E749E
:104A600020746F207468652065787472756465724F
:104A70002C207468656E207072657373206B6E6F86
:104A80006220746F206C6F61642069742E00506C1A
:104A90006561736520696E7365727420504C4120A6
:104AA00066696C616D656E7420746F207468652032
:104AB00066697273742074756265206F66204D4D4F
:104AC000552C207468656E2070726573732074684D
:104AD00065206B6E6F6220746F206C6F616420695B
:104AE000742E00596F752063616E20616C77617957
:104AF0007320726573756D65207468652057697AD7
:104B00006172642066726F6D2043616C69627261CC
:104B100074696F6E202D3E2057697A6172642E0091
:104B2000506C6561736520636865636B206F757297
:104B30002068616E64626F6F6B20616E64206669CD
:104B400078207468652070726F626C656D2E2054D9
:104B500068656E20726573756D6520746865205791
:104B6000697A617264206279207265626F6F74691C
:104B70006E6720746865207072696E7465722E00AD
:104B8000416C6C20697320646F6E652E20486170E3
:104B90007079207072696E74696E672100506C655F
:104BA00061736520636C65616E2068656174626520
:104BB0006420616E64207468656E20707265737322
:104BC00020746865206B6E6F622E00446F20796FD1
:104BD000752077616E7420746F20726570656174E2
:104BE000206C617374207374657020746F2072651B
:104BF00061646A7573742064697374616E6365209F
:104C00006265747765656E206E6F7A7A6C65206177
:104C10006E6420686561746265643F00492077694D
:104C20006C6C20737461727420746F207072696E82
:104C300074206C696E6520616E6420796F752077D1
:104C4000696C6C206772616475616C6C79206C6F43
:104C500077657220746865206E6F7A7A6C65206261
:104C60007920726F746174696E6720746865206B57
:104C70006E6F622C20756E74696C20796F7520726E
:104C800065616368206F7074696D616C2068656927
:104C90006768742E20436865636B207468652070B4
:104CA0006963747572657320696E206F7572206810
:104CB000616E64626F6F6B20696E206368617074EF
:104CC00065722043616C6962726174696F6E2E0057
:104CD0004E6F7720492077696C6C2063616C696244
:104CE000726174652064697374616E6365206265C6
:104CF000747765656E20746970206F6620746865CE
:104D0000206E6F7A7A6C6520616E642068656174CC
:104D100062656420737572666163652E0049732055
:104D2000697420504C412066696C616D656E743FFA
:104D30000053656C656374206E6F7A7A6C652070C1
:104D40007265686561742074656D706572617475F3
:104D50007265207768696368206D61746368657344
:104D600020796F7572206D6174657269616C2E00B7
:104D70004E6F7720492077696C6C2070726568658A
:104D80006174206E6F7A7A6C6520666F7220504C69
:104D9000412E0049732066696C616D656E74206CEC
:104DA0006F616465643F0049732066696C616D657D
:104DB0006E742031206C6F616465643F004E6F77C4
:104DC00020492077696C6C20707265686561742079
:104DD0006E6F7A7A6C6520666F7220504C412E009F
:104DE000492077696C6C2072756E207A2063616C43
:104DF0006962726174696F6E206E6F772E004E6FFC
:104E0000772072656D6F76652074686520746573B0
:104E100074207072696E742066726F6D2073746591
:104E2000656C2073686565742E00506C65617365F0
:104E30002072656D6F7665207368697070696E6742
:104E40002068656C706572732066697273742E00D9
:104E5000492077696C6C2072756E2078797A2063AE
:104E6000616C6962726174696F6E206E6F772E205B
:104E700049742077696C6C2074616B652061707077
:104E8000726F782E203132206D696E732E00466964
:104E90007273742C20492077696C6C2072756E20B7
:104EA0007468652073656C667465737420746F2014
:104EB000636865636B206D6F737420636F6D6D6FD6
:104EC0006E20617373656D626C792070726F626CB5
:104ED000656D732E0048692C204920616D20796F23
:104EE0007572204F726967696E616C2050727573BC
:104EF00061206933207072696E7465722E20576F5D
:104F0000756C6420796F75206C696B65206D652008
:104F1000746F20677569646520796F752074687295
:104F20006F7567682074686520736574757020708C
:104F3000726F636573733F00452D636F72726563B3
:104F4000743A005A2D636F72726563743A00592D7A
:104F5000636F72726563743A00582D636F72726585
:104F600063743A0053706F6F6C4A6F696E20202033
:104F70005B4E2F415D0053706F6F6C4A6F696E20FE
:104F800020205B6F66665D0053706F6F6C4A6F69BF
:104F90006E202020205B6F6E5D00536F756E642065
:104FA00020202020205B6C6F75645D00536F756E50
:104FB000642020202020205B6D7574655D00536F98
:104FC000756E64202020205B73696C656E745D00D3
:104FD000536F756E642020202020205B6F6E636508
:104FE0005D00536F756E642020202020205B6C6F65
:104FF00075645D00536F7274202020202020205B98
:105000006E6F6E655D00536F72742020205B616C63
:105010007068616265745D00536F72742020202097
:105020002020205B74696D655D00534420636172CC
:105030006420205B6E6F726D616C5D005344206371
:10504000617264205B666C73684169725D005250E6
:105050006920706F727420202020205B6F6E5D00CD
:1050600052506920706F7274202020205B6F66663A
:105070005D0054656D702E2063616C2E2020205BD6
:105080006F6E5D0054656D702E2063616C2E202064
:105090005B6F66665D004C696E2E20636F72726591
:1050A0006374696F6E004D65736820626564206C7F
:1050B0006576656C696E67004D4D55204D6F646572
:1050C0005B537465616C74685D004D4D55204D6F88
:1050D0006465205B4E6F726D616C5D0046616E733E
:1050E00020636865636B20205B6F66665D004661C8
:1050F0006E7320636865636B2020205B6F6E5D00BC
:10510000462E206175746F6C6F6164205B6F6666FC
:105110005D00462E206175746F6C6F616420205BAA
:105120006F6E5D00462E206175746F6C6F61642038
:105130005B4E2F415D0044697361626C652073743E
:10514000657070657273004D6F7665206178697364
:105150000054656D70657261747572650054656D9B
:10516000702E2063616C6962726174696F6E0052A7
:10517000657365742058595A2063616C6962722E98
:10518000005049442063616C6962726174696F6E9A
:1051900000426564206C6576656C20636F72726591
:1051A0006374004D65736820426564204C657665C4
:1051B0006C696E670043616C696272617465205A44
:1051C0000043616C6962726174652058595A0053DA
:1051D000656C6674657374202020202020202020B8
:1051E000004669727374206C617965722063616C2A
:1051F0002E0057697A617264004C6F616420616CA3
:105200006C0057697A61726420656E642073746102
:1052100074653A2025640A004572723A205052495A
:105220004E542046414E204552524F520050726912
:105230006E742066616E20737065656420697320EA
:105240006C6F776572207468616E20657870656335
:10525000746564004572723A20455854522E2046B7
:10526000414E204552524F52004578747275646524
:10527000722066616E207370656564206973206CAE
:105280006F776572207468616E20657870656374ED
:105290006564002F2F20616374696F6E3A706175C9
:1052A0007365004572723A204D415854454D500087
:1052B0003A204578747275646572207377697463F7
:1052C000686564206F66662E204D415854454D50E8
:1052D0002074726967676572656420210045727287
:1052E0003A204D415854454D5020424544005465A4
:1052F0006D7065726174757265206865617465644E
:1053000020626564207377697463686564206F66E2
:10531000662E204D415854454D5020747269676780
:105320006572656420210070012C0190012701B095
:10533000012201C0011D01F001180110021301300A
:10534000020E016002090190020401C002FF000088
:1053500003FA004003F5008003F000D003EB0020C7
:1053600004E6007004E100E004DC004005D700C062
:1053700005D2004006CD00D006C8008007C300302B
:1053800008BE00F008B900C009B400B00AAF00B010
:105390000BAA00D00CA500000EA000500F9B00C06F
:1053A0001096005012910000148C00C0158700B0B8
:1053B000178200B0197D00D01B7800001E730040DA
:1053C000206E0090226900F024640040275F009066
:1053D000295A00E02B5500102E500020304B0010B1
:1053E000324600E033410090353C00103737007002
:1053F000383200A0392D00B03A2800A03B230060CD
:105400003C1E00103D1900903D1400103E0F00702E
:105410003E0A00C03E0500003F000090137D00B032
:10542000157800F0177300601A6E00F01C6900A078
:105430001F640050225F0020255A00E0275500908D
:105440002A5000202D4B00A02F4600F031410010C3
:10545000343C00F0353700A037320020392D006091
:105460003A2800703B2300603C1E00203D1900C01C
:105470003D1400403E0F00A03E0A00F03E050040F3
:105480003F0000703FFBFF903FF6FFB03FF1FFC0D1
:105490003FECFFD03FE7FFE03FE2FFF03FDDFFF0F2
:1054A0003FD8FF20484F54454E4420544845524D64
:1054B000414C2052554E41574159002048454154D6
:1054C00042454420544845524D414C2052554E418E
:1054D00057415900544845524D414C2052554E4178
:1054E0005741590042454420544845524D414C20B3
:1054F00052554E415741590020544845524D414C58
:105500002052554E41574159202820505245484578
:10551000415420484F54454E442900205448455298
:105520004D414C2052554E41574159202820505250
:10553000454845415420484541544245442900507E
:10554000524548454154204552524F52004245442D
:105550002050524548454154204552524F52004533
:105560006A6563742066696C616D656E7400506C69
:10557000656173652070756C6C206F757420666949
:105580006C616D656E7420696D6D656469617465CB
:105590006C7900556E6C6F6164696E672066696C2A
:1055A000616D656E7400526573756D696E6720700C
:1055B00072696E7400537570706F72740046616921
:1055C0006C207374617473204D4D55004661696C95
:1055D00020737461747300537461746973746963C4
:1055E0007320200043616C6962726174696F6E00A0
:1055F0004175746F4C6F61642066696C616D656E96
:105600007400456A6563742066696C616D656E74CB
:1056100000556E6C6F61642066696C616D656E74B7
:10562000004C6F616420746F206E6F7A7A6C650035
:105630004C6F61642066696C616D656E74004E6FBD
:105640002053442063617264005072696E74206656
:10565000726F6D20534400526573756D65207072D2
:10566000696E74005061757365207072696E7400A4
:10567000507265686561740054756E65004C69769A
:10568000652061646A757374205A00496E666F20E4
:1056900073637265656E0046696E697368696E67EB
:1056A000206D6F76656D656E747300536F756E64F3
:1056B0002020202020205B6C6F75645D00536F7587
:1056C0006E642020202020205B6D7574655D005382
:1056D0006F756E64202020205B73696C656E745D4D
:1056E00000536F756E642020202020205B6F6E6356
:1056F000655D00536F756E642020202020205B6C58
:105700006F75645D004D4D55204D6F64655B53743E
:1057100065616C74685D004D4D55204D6F6465206A
:105720005B4E6F726D616C5D0043726173682064E3
:1057300065742E20205B4E2F415D004372617368BB
:10574000206465742E2020205B6F6E5D00437261C3
:105750007368206465742E20205B6F66665D004D63
:105760006F6465202020205B537465616C74685DF4
:10577000004D6F646520202020205B4E6F726D61AC
:105780006C5D0046696C2E2073656E736F7220200D
:105790005B6F6E5D0046696C2E2073656E736F7271
:1057A000205B6F66665D004368616E6765206669B1
:1057B0006C616D656E7400466C6F77005370656543
:1057C00064004D61676E65747320636F6D702E5B4E
:1057D0004E2F415D004D61676E65747320636F6D80
:1057E000702E5B4F66665D004D61676E6574732059
:1057F000636F6D702E205B4F6E5D005A2D70726F5F
:105800006265206E722E202020205B335D005A2DB1
:1058100070726F6265206E722E202020205B355DD5
:10582000005A2D70726F6265206E722E202020202B
:105830005B315D004D6573682020202020202020F2
:10584000205B3778375D004D65736820202020206D
:10585000202020205B3378335D0046616E2073701A
:1058600065656400426564004E6F7A7A6C6500532A
:10587000657474696E6773005072696E742061623A
:105880006F7274656400596573004E6F0053746FD6
:1058900070207072696E740043686F6F7365206367
:1058A0006F6C6F723A004661726D206E756D626545
:1058B00072004D363030001000C90210012C01403A
:1058C00001220170011801B0010E01F00104015024
:1058D00002FA00B002F0003003E600D003DC0090D2
:1058E00004D2007005C800A006BE000008B400B0D5
:1058F00009AA00D00BA000600E960060118C000079
:1059000015820020197800C01D6E00A0226400B02E
:10591000275A00902C500000314600E0343C001023
:10592000383200903A2800603C1E00A03D140080F0
:105930003E0A00203F00004D494E54454D50206620
:105940006978656400506C65617365207265737475
:10595000617274004572723A204D494E54454D5063
:10596000003A2045787472756465722073776974A3
:1059700063686564206F66662E204D494E54454D20
:1059800050207472696767657265642021004572F2
:10599000723A204D494E54454D50204245440054E2
:1059A000656D706572617475726520686561746596
:1059B0006420626564207377697463686564206F2E
:1059C00066662E204D494E54454D502074726967CD
:1059D0006765726564202100746D63323133305F16
:1059E000686F6D655F656E74657228617865735F59
:1059F0006D61736B3D307825303278290A00746D03
:105A000063323133305F686F6D655F65786974202C
:105A1000746D63323133305F73675F686F6D696EC9
:105A2000675F617865735F6D61736B3D30782530BA
:105A300032780A00627573793A2070617573656413
:105A400020666F7220696E70757400627573793AA2
:105A50002070617573656420666F7220757365725E
:105A600000627573793A2070726F63657373696E43
:105A7000670000002110422063308440A550C660BA
:105A8000E770088129914AA16BB18CC1ADD1CEE1FB
:105A9000EFF13112100273325222B5529442F77272
:105AA000D662399318837BB35AA3BDD39CC3FFF34B
:105AB000DEE36224433420040114E664C774A44482
:105AC00085546AA54BB528850995EEE5CFF5ACC59B
:105AD0008DD55336722611163006D776F666955652
